:020000040000FA
:0600000051EF3FF0120079
:0600080004EF3CF01200C1
:0600180035EF3CF0120080
:0608000051EF3FF0120071
:0608080004EF3CF01200B9
:0608180035EF3CF0120078
:06082A000300077F00003F
:100830008901000002000000047F00008401000024
:1008400003000000FE7E00002F02000006000000F2
:10085000AEEC0CF0F70EDBA002D073EC0DF0020151
:10086000085109112CE0F70EDBCFE6FFF80EDBCFC5
:10087000E6FFF90EDBCFE6FFFA0EDBCFE6FFD9503D
:10088000FB0FE96EFF0EDA20EA6EEECFE6FFEECF49
:10089000E6FFEECFE6FFEFCFE6FF05D009C2FAFF95
:1008A00002010851F96EFADF006E080EE15E005099
:1008B000F70EDBA208D0B8EC0FF0010E05D0B8ECB3
:1008C0000FF0030E01D0020E1CEF0BF00EEC0BF03C
:1008D000010EDB6A04EC13F0C5EC0CF0070ED890A7
:1008E00001320032E804FBE10E0E0016000E011684
:1008F000A00E00106BEC0BF012EC0BF0E8AE02D087
:10090000E73402D0E750005C17E2020EDBCF00F0C4
:10091000016A00BE016895EC0BF00BE1DF6A040E82
:10092000DF5C03E291EC0CF0FAD789EC0BF008E203
:10093000D1D7020EDB2AE0D70AEC13F019EC0BF04A
:10094000030EE15C02E2E16AE552E16E1CEF0BF09E
:100950000EEC0BF0010EDB6A04EC13F00CEC0CF067
:10096000000EEE5C000EEE58010EEE58000EEE5832
:1009700002E3080E01D0000EA009B3EC0CF0006AEF
:1009800001683AEC0DF0080ED890033202320132C1
:100990000032E806F9E100506BEC0BF012EC0BF0C2
:1009A000E8AE02D0E73402D0E750005C17E2020E56
:1009B000DBCF00F0016A00BE016895EC0BF00BE1A3
:1009C000DF6A040EDF5C03E291EC0CF0FAD789ECED
:1009D0000BF009E2C1D7020EDB2AE0D70AEC13F0D4
:1009E0001E0EE7EC0BF0030EE15C02E2E16AE55259
:1009F000E16E1CEF0BF00EEC0BF063EC0DF058EC1D
:100A00000DF04CEC0CF01A0EE66EE66A240E0CECBF
:100A10000DF00A0E5BEC0CF0020EDB6A12EC0BF030
:100A2000E8AE02D0E73402D0E750005C01E3B6D074
:100A3000006AAAEC0BF008AE03D009680A680B68DC
:100A400023EC0BF0046A056A076A0C0ED890073293
:100A5000063205320432E806F9E161EC0CF053ECA1
:100A60000BF0900EE66E010EE66E880E0CEC0DF0AB
:100A7000070E006EAAEC0BF008AE03D009680A68F6
:100A80000B6823EC0BF0066A076A040E1F0B03E0E9
:100A9000CEEC0BF0FDE161EC0CF053EC0BF0DE6AF8
:100AA000DD6A06EC0DF06AE2006A016A200E026E51
:100AB000036AA0EC0BF00ABE0B68C1EC0BF00A5005
:100AC0001E24086E0B501F20096EF90EDB500824FF
:100AD00036EC0DF00920EA6EEFCF04F0056A066AE5
:100AE000076A040E1F0B03E0CEEC0BF0FDE161EC96
:100AF0000CF00312020EDBCF12F0136A12BE136861
:100B0000C1EC0BF012501E24106E13501F20116EFA
:100B1000010E1026000E1122F90EDB50102436ECC7
:100B20000DF01120EA6EEFCF0CF00D6A0E6A0F6A1D
:100B30000C0E1F0B07E0D8900C360D360E360F3614
:100B4000E806F9E10C5000120D5001120E5002128D
:100B50000F500312DECF14F0DDCF15F0166A176ABE
:100B6000145000121550011216500212175053EC77
:100B70000BF0DF2A010E95E3DB2A93D7E66A030E1A
:100B8000E66EEB0E0CEC0DF0E9EC0CF0DCEC0CF08E
:100B9000DCEC0CF00C0EEEEC0BF040D7580EE66ED1
:100BA000050EE66E200E0CEC0DF0380E5BEC0CF032
:100BB000A90EE66E0A0EE66E200E0CEC0DF0390E54
:100BC0005BEC0CF0610EE66EE70EE66EA80ED9EC5B
:100BD0000BF0CBEC0BF063EC0DF0610EE66EE70E64
:100BE000E66EA90ED9EC0BF04CEC0CF0030EE15CB8
:100BF00002E2E16AE552E16E1CEF0BF069EC0CF0E9
:100C000009E121EC0CF0A60EE66E880E75EC0AF0F8
:100C1000EEEC0CF0DF6A5DEC0BF0E8AE02D0E734EE
:100C200002D0E750005C0BE289EC0AF008BE0968CC
:100C3000F8EC0BF002BE036813EC0CF0ECD7200EBE
:100C4000C3EC0AF0200E001805E1015003E1025048
:100C500001E1035004E0F70EDB50020B0BE089ECDE
:100C60000AF008BE0968F8EC0BF002BE036809EC54
:100C70000DF00AD089EC0AF008BE0968F8EC0BF018
:100C800002BE036885EC0AF07FEF0CF069EC0CF013
:100C900002E1F6EC0CF0DF6A5DEC0BF0E8AE02D09E
:100CA000E73402D0E750005C0BE289EC0AF008BEA2
:100CB0000968F8EC0BF002BE036813EC0CF0ECD7FB
:100CC000200EC3EC0AF0200E001805E1015003E1EC
:100CD000025001E1035004E0F70EDB50020B0BE081
:100CE00089EC0AF008BE0968F8EC0BF002BE036854
:100CF00009EC0DF00AD089EC0AF008BE0968F8EC9E
:100D00000BF002BE036885EC0AF07FEF0CF050ECAC
:100D10000BF0600E46EC0DF002E1F6EC0CF0DF6A31
:100D20005DEC0BF0E8AE02D0E73402D0E750005C97
:100D30000BE289EC0AF008BE0968F8EC0BF002BE81
:100D4000036813EC0CF0ECD7600EC3EC0AF0600EF5
:100D5000001805E1015003E1025001E1035004E0F5
:100D6000F70EDB50020B0AE0D4DB08BE0968F8EC92
:100D70000BF002BE036809EC0DF008D0CADB08BE18
:100D80000968F8EC0BF002BE0368BFDB7FEF0CF0E4
:100D900050EC0BF0EEEC0CF0DF6A5DEC0BF0E8AE23
:100DA00002D0E73402D0E750005C0AE2B2DB08BEB2
:100DB0000968F8EC0BF002BE036813EC0CF0EDD7F9
:100DC000A8DB08BE0968F8EC0BF002BE036809EC6A
:100DD0000DF07FEF0CF050EC0BF0E3EC0BF0A60EF7
:100DE00002EC0CF0DF6A5DEC0BF0E8AE02D0E73409
:100DF00002D0E750005C0AE28CDB08BE0968F8EC20
:100E00000BF002BE036813EC0CF0EDD782DB08BEDA
:100E10000968F8EC0BF002BE036809EC0DF07FEFF7
:100E20000CF00FEC0DF012EC0BF0E8AE02D0E73452
:100E300002D0E750005C28E2DE6ADD6A1CEC0CF0B0
:100E40000E0EBEEC0CF008E2CEDB0CBE0D68B7DB7C
:100E500004BE056876DBF2D70F0EBFDB08BE09685B
:100E60006DEC0CF002BE0368DCEC0BF00E0EE92614
:100E7000000EEA2235DBC9EC0BF0C9EC0BF0E552B1
:100E8000E552B5EC0BF0CFD7030EE15C02E2E16A6C
:100E9000E552E16ED1D30FEC0DF0C4DBE8AE02D029
:100EA000E73402D0E750005C18E2DE6ADD6A06EC47
:100EB0000DF008E298DB0CBE0D6881DB04BE05680E
:100EC00040DBF5D7D9EC0CF008BE09686DEC0CF0EE
:100ED00002BE036849EC0DF0E0D7030EE15C02E2CC
:100EE000E16AE552E16EA8D399DBF70EDBA00FD0E3
:100EF00021EC0CF0A60EE66E860EF7DAA1EC0CF0F3
:100F0000400EE66EE66A7CEC0BF0E3EC0BF066EC70
:100F10000DF0020EDB6A86DBE8AE02D0E73402D0C9
:100F2000E750005C36E2DE6ADD6A06EC0DF008E2AE
:100F30005ADB0CBE0D6843DB04BE056802DBF5D747
:100F4000F70EDB50020B16E0F80EDB50F80FF36ED5
:100F5000020EDB50F35C0EE1D9EC0CF008BE096820
:100F60006DEC0CF002BE03681CEC0DF00F0E27ECCC
:100F70000DF00DD0D9EC0CF008BE09686DEC0CF04A
:100F800002BE03681CEC0DF0B7DB01EC0DF010DBCA
:100F9000C2D7030EE15C02E2E16AE552E16E4CD396
:100FA0003DDBEEEC0CF0020EDB6A3CDBE8AE02D07F
:100FB000E73402D0E750005C18E2DE6ADD6A06EC36
:100FC0000DF008E210DB0CBE0D68F9DA04BE05680E
:100FD000B8DAF5D7D9EC0CF008BE09686DEC0CF066
:100FE00002BE036849EC0DF0E0D7030EE15C02E2BB
:100FF000E16AE552E16E20D311DB21EC0CF0A1ECAB
:101000000CF0000EE66EE66A77DBEEEC0CF0020EFA
:10101000DB6A08DBE8AE02D0E73402D0E750005CC0
:1010200018E2DE6ADD6A06EC0DF008E2DCDA0CBEDE
:101030000D68C5DA04BE056884DAF5D7D9EC0CF082
:1010400008BE09686DEC0CF002BE036849EC0DF0B7
:10105000E0D7030EE15C02E2E16AE552E16EECD218
:1010600069EC0CF002E1A60ECDDBDF6A26DBE8AE10
:1010700002D0E73402D0E750005C08E24ADA08BE4A
:101080000968B6DB02BE0368CEDBF0D7200E46EC63
:101090000DF009E03EDA08BE0968AADB02BE03686B
:1010A0004CEC0DF023D035DA08BE0968A1DB02BE96
:1010B00003682BDAE552E552F70EDBA220D0DF6A97
:1010C000DFCF00F01E0EE76E0018E8AE02D0E73466
:1010D00002D0E750005C08E2E668E6680D0E4FECCF
:1010E0000DF0020EDF26ECD7E668E6680F0E4FEC37
:1010F0000DF0B9DB9EDA5EEC0DF0E552E552E552FB
:101100009BD2CEDAF70EDBA003D0160E4BDA91DBC2
:10111000DF6AF5DAE8AE02D0E73402D0E750005CCF
:1011200009E243DB06BE07686FDA02BE036816EC0D
:101130000DF0EFD7E55280D2B3DAF70EDBB079DBF2
:10114000DF6ADDDAE8AE02D0E73402D0E750005CB7
:1011500009E22BDB06BE076857DA02BE036816EC0D
:101160000DF0EFD7E55268D29BDA07DB03E00FDA28
:1011700001E25FDBDF6AC3DAE8AE02D0E73402D017
:10118000E750005C0DE211DB06BE07683DDA02BEE7
:10119000036820DA180E78DB0A0E76DBB4DBEBD7B7
:1011A000E5524AD2DBDB040EE126E7DA03E0EFD9B1
:1011B00001E23FDBDF6AA3DAE8AE02D0E73402D017
:1011C000E750005C56E2010EDB6ADBCF00F0190E3F
:1011D000E76E0018E8AE02D0E73402D0E750005CBA
:1011E00046E2E3DA06BE07680FDA02BE0368E4DA15
:1011F0003FEC0DF0020E00C0DBFF030E05C0DBFF6D
:10120000020EDBCFE6FF030EDBCFE6FF1EDB080E90
:10121000C9D9640EE66EE66A7BEC3CF0E552E55215
:101220000E0EC0D9040EE66E060EE66E03EC11F04B
:10123000E552E552F4CF01F0020EDB50F31814E151
:10124000030EDB50011810E1010EDBCF02F0160E89
:10125000E76E0218E8AE02D0E73402D0E750025C35
:1012600003E2DE52160EDD6E010EDB2AAED74BDB3B
:10127000A2D7040EE15C02E2E16AE552E16EDCD144
:101280002FDB03E084D901E2D4DA020EDB6ACAD98B
:10129000E8AE02D0E73402D0E750005C1CE2DE6A20
:1012A000DD6ACADA040E6ADB0DE24ADA0ABE0B68AE
:1012B0005BD904BE05683AD9020E60DB01E275D93C
:1012C000E6DAEFD7080E6ED9020E81DA0E0E50DB89
:1012D000040E84DADCD7030EE15C02E2E16AE55237
:1012E000E16EAAD1FDDA03E052D901E2A2DA020EE0
:1012F000DB6A98D9E8AE02D0E73402D0E750005C50
:1013000014E2DE6ADD6AF4D90BE21ADA0ABE0B686F
:101310002BD904BE05682FDB01E247D9B8DAF3D731
:10132000180EB2DA0A0E8FDBE4D7030EE15C02E29C
:10133000E16AE552E16E80D1D3DA03E028D901E217
:1013400078DA020EDB6A6ED9E8AE02D0E73402D05A
:10135000E750005C14E2DE6ADD6ACAD90BE2F0D91C
:101360000ABE0B6801D904BE056805DB01E21DD980
:101370008EDAF3D7180E88DA0E0E65DBE4D7030E8B
:10138000E15C02E2E16AE552E16E56D1A9DA03E0DE
:10139000FED801E24EDA020EDB6A44D9E8AE02D092
:1013A000E73402D0E750005C15E2DE6ADD6AA0D9BE
:1013B0000BE2C6D90ABE0B68D7D804BE0568DBDAD3
:1013C00001E2F3D864DAF3D7080E5EDAEED8080E3D
:1013D00005DAE3D7030EE15C02E2E16AE552E16E71
:1013E0002BD17EDA03E0D3D801E223DA020EDB6AE6
:1013F00019D9E8AE02D0E73402D0E750005C16E21B
:10140000DE6ADD6A75D90BE29BD90ABE0B68ACD8DF
:1014100004BE0568B0DA01E2C8D839DAF3D7180E8D
:10142000C1D8020ED4D9170E0EDBE2D7030EE15C51
:1014300002E2E16AE552E16EFFD052DA03E0A7D89A
:1014400001E2F7D9020EDB6AEDD8E8AE02D0E7344C
:1014500002D0E750005C1AE2DE6ADD6AEDD9100EB8
:101460008DDA0DE26DD90ABE0B687ED804BE056820
:101470005DD80E0E83DA01E298D809DAEFD7080EAC
:1014800091D8100EA4D991D870D9DED7030EE15CA3
:1014900002E2E16AE552E16ECFD002D9F70EDBA09D
:1014A00002D083D8C6D9DF6A2AD9E8AE02D0E734A1
:1014B00002D0E750005C12E278D906BE0768A4D8D3
:1014C00002BE036887D8010E82D9080E6BD863D993
:1014D0000E0E68D8010E7BD916DAE6D7E552ACD0ED
:1014E0008CD90F0EDCDA01EF0DF0E66EE66A07EF3D
:1014F0000CF092D9EECFE6FFEECFE6FFEECFE6FF9F
:10150000EFCFE6FF1200E66A3DD2C6DA0D0E27EFF6
:101510000DF0010EE8D9DFCF08F0096A120006507D
:101520000824E96E07500920CCEF0CF0DE500424AB
:10153000026EDD500520036E3FD9E9D986D91CEF34
:101540000CF0F90EDB500424026EFA0EDB5005207D
:10155000036EDE500224E96EDD500320EA6ED7D917
:101560000D0E9DDA47EF0CF0DE500A24086EDD50B8
:101570000B20096E010E0826000E0922F90EDB5021
:10158000082474DA8CD1006E016A3AEF0DF044D968
:10159000D880000EEE54000EEE54000EEE54000EF5
:1015A000EE541200E66E060EFED1060EE66EFBD17C
:1015B00063D962D9E552E552080EEEEF0BF00A50FE
:1015C0000C24086E0B500D20096EDE500824E96EC5
:1015D000DD5065D161DA25EF0CF085D9020EDBCF45
:1015E00008F0096A1200010EE76EF90EDBCF0AF06F
:1015F000FA0EDBCF0BF0E7500A26000E0B22020E8C
:10160000DBCF0CF00D6A1200F90EDB5006242EDA47
:101610000720C2D9DFCF02F0036A12009FD9030E60
:10162000E1261200DBCF00F0F80EDB50E76E001869
:1016300012000A0EE7EF0BF0E552E7CFD9FF1200D8
:101640000BEC10F0CED1E8D80850EE24046E09500F
:10165000EE20056E0A50EE20066E0B50EE20076E4F
:10166000D8900436053606360736030E236E246AF4
:10167000256A266A04C01EF005C01FF006C020F0CF
:1016800007C021F0FFEC3EF01EC004F01FC005F0C3
:1016900020C006F021C007F01200DFEC0FF0A1D14E
:1016A0005DD9E6521200031200C0E6FF01C0E6FF5A
:1016B00002C0E6FF03C0E6FF65D1DFCF00F0F80E01
:1016C000DB50FE0FE76E0018120035EC1AF0E55201
:1016D0007D0EE7EF0BF047D958D9FD0EDBCF02F0B6
:1016E000FE0EDBCF03F000503ED9020EDB6A120083
:1016F000A3D8080EBEEF0CF00C0E4FEF0DF0DFCFAD
:1017000000F0F80EDB50E76E00181200060EBEEF78
:101710000CF00AEC13F01E0E5AD8020EF36E010EF6
:10172000DBCFF4FFF350F45C1200F90EDB50002421
:101730009DD90120EA6EEF5016D9DF6EDF0412004A
:10174000020EDBCF0AF00B6A1200020EDBCF02F0B2
:10175000036A1200016A200E026E036A020EDBCFDA
:1017600008F0096A0A6A0B6A1200100EEEEF0BF01D
:1017700000500110021003101200F70EDB50010B95
:101780001200206E216ADECF25F0DDCF26F023EF98
:101790003FF03CEF0CF0030EE7EF0BF0D89004366F
:1017A000053606360736E8061200DF28066E076A99
:1017B000120032D963EF0DF0F90EDB50022456D936
:1017C0000320EA6E12004BD99C0E75EF0AF0E66E0C
:1017D000E66A67EC3CF0E552E5521200006E020E3C
:1017E000DBCFE7FF0050E726020EE7CFDBFF12005A
:1017F00096DEDFCF02F0036A120041D9E66E05C023
:10180000E6FF1200E66E840E70DE66EF0DF0040E49
:10181000E66EF5EC10F0E5D0D950FB0FE96EFF0E47
:10182000DA20EA6E120071DEE552E552020EDF2682
:1018300012005FDE4DEF0BF0DECF00F0DDCF01F0E8
:1018400012000DD98C0E75EF0AF0020EE66E060E30
:10185000E66EFCEC10F0C5D0060EE926000EEA227A
:101860003FDED8EF0AF0E66A030EE66E32EC10F0C7
:10187000E552E5528A821200E552E552090EE66E03
:10188000040EE66E84EF11F08DDE19EF0BF0020E00
:10189000DE26000EDD2212000BD9E9EF0CF0092044
:1018A000EA6EEFCF06F006C007F0066A020EDBCF45
:1018B00004F0056A1200E66E3B0EE66E880E0CEF31
:1018C0000DF004500012055001120650021207508C
:1018D0001200E6DE200E46EF0DF021DEA5EF0BF044
:1018E0009DDEBDEF0BF0E76EF90EDBCF06F0FA0ED2
:1018F000DBCF07F0E7500626000E07221200E55264
:10190000E552E55299D651DE020EDF261200EF5065
:1019100000010610006E07C001F0E66E07C0E6FF8A
:101920001200070EE66ED1DEE66ACFDEDF2A120075
:10193000EE500016EE500116EE500216EE50031651
:101940001200060EE66EE66A3C0EE66EE66A20EFD0
:101950000BF0000EE66EE66A72EF10F0D9CFE6FFEC
:10196000E1CFD9FF1200E66E0FEC13F0E552120042
:1019700019DED5EF0AF0DADD86EF0BF0005C000E21
:10198000015812008CEC12F02CD0FB0EDBCF00F0D3
:10199000FC0EDBCF01F01200EA6EEFCF04F004C0C2
:1019A00005F0046A1200E66E32EC10F0E552E552E2
:1019B0001200070EEDEF0AF0B60EE66E0B0E72D8AF
:1019C000DB0E70D8EB0E6ED81B0EE66EBB0ED9EF99
:1019D0000BF0E66AE66AE66A83EF0AF0F4DE66EF89
:1019E0000DF0E552E552E552E55212007F0EE66E2B
:1019F0008E0E7BDD7F0EE66E9C0E77DD7F0E02EF96
:101A00000CF031DF020EE3DE5EEF0DF015DF86EF46
:101A10000BF0D2DE70EF0AF0E66E83EF0AF0FEDD27
:101A2000D2DEA60EEFDE020EDB6A1200D3DD080E58
:101A30002BDFFFDD83EF0CF0BFDE060EE926000E84
:101A4000EA22FDEF0BF094DF080EEEEF0BF0E66EEE
:101A5000040EE66EF5EC10F0E552E5521200A60E0B
:101A6000E66E8E0E42DDA60EE66E1200E96EFA0EEE
:101A7000DB501200026A036ACFDE98EF0CF0EF50E1
:101A800000010410006E05C001F012007CDDB8EF0B
:101A90000BF092DE2CEF0CF08FDEFDEF0BF0E66E1C
:101AA00007EF0CF0E66EBB0E84DEB60EE66E12009B
:101AB000E66A010EE66E040E0CEF0DF08A92010E3E
:101AC00086DEA9EF0CF085DFE9EF0CF012DD20EFE8
:021AD0000BF019
:0E1AD2009AEC13F0FC0EDB5002E149DA01D071
:101AE00002D89FEF13F002010051011108E005D068
:101AF00001C2FAFF02010051F96EFADF120081EF14
:101B00000DF0020102010E51800B03E10101860577
:101B100002E1929A9298939293908A908A9200000E
:101B200000000101845101E18A94640EE66EE66AC8
:101B300067EC3CF0E552E5520101855102E18A96DD
:101B400001D08986640EE66EE66A67EC3CF0E552E9
:101B5000E5521200020102010E51800B03E1010166
:101B6000860502E1929A9298939293908A908A9233
:101B7000000000000101855102E18A9601D08986AA
:101B8000640EE66EE66A67EC3CF0E552E552010150
:101B9000845101E18A94640EE66EE66A67EC3CF0DB
:101BA000E552E5521200D9CFE6FFE1CFD9FF020E90
:101BB000E126020102010E51800B03E101018605BD
:101BC00002E1929A9298939293908A908A9200005E
:101BD0000000640EE66EE66A67EC3CF0E552E55202
:101BE0000101845101E18A94000000000101855146
:101BF00002E18A9601D089861A0EE66EE66A67ECE3
:101C00003CF0E552E552E66AE66AE66AE66A8CEC82
:101C100012F0E552E552E552E552E66AE66AE66AF6
:101C2000E66A8CEC12F0E552E552E552E552E66ABE
:101C3000E66AE66AE66A8CEC12F0E552E552E55295
:101C4000E552E66AE66AE66AE66A8CEC12F0E5526C
:101C5000E552E552E5520101855102E18A8601D043
:101C600089968A8A8A9ADE6ADD6ADECF00F0DDCF45
:101C700001F0010E005C000E015806E200D0DF2AE0
:101C8000010E01E3DB2AF1D70101855102E18A96B9
:101C900001D08986640EE66EE66A67EC3CF0E55298
:101CA000E552020EE15C02E2E16AE552E16EE552C4
:101CB000E7CFD9FF120029EC14F003E101018605FA
:101CC00002E1929A9298E9EC13F001E18A9423ECF4
:101CD00014F0DCEC13F002E605EC14F005E2DF2A68
:101CE000010EF7E3DB2AF5D789968A8A040E79EC90
:101CF00013F0060E79EC13F093EC13F002EC14F0F1
:101D0000020E79EC13F08A9A89863DEC14F0020EEB
:101D1000E15C02E2E16AE552E16E9FEF13F029EC2B
:101D200014F003E10101860502E1929A92989392E0
:101D3000939089968A8A3DEC14F00101845101E167
:101D40008A940A0E79EC13F08A9A8986030E79EC4C
:101D500013F089968A8ADE6ADD6ADCEC13F002E60B
:101D600005EC14F005E2DF2A010EF7E3DB2AF5D7D4
:101D700093EC13F002EC14F03DEC14F089868A9A8F
:101D80003DEC14F0020EE15C02E2E16AE552E16E24
:101D90009FEF13F002010E51800B03E10101860554
:101DA00002E1929A9298E9EC13F001E18A940A0E0A
:101DB00079EC13F089863DEC14F089968A8A020E3C
:101DC00079EC13F015EC14F08A9A89863C0E40ECFD
:101DD00014F00AEC14F080EC13F080EF13F0020121
:101DE00002010E51800B03E10101860502E1929A86
:101DF00092989392939089960101845101E18A947B
:101E0000000000008986010EE66EE66A67EC3CF091
:101E1000E552E55289968A8A020EE66EE66A67EC1A
:101E20003CF0E552E552B20EE66EC20EE66E5AD9AD
:101E3000E552E552120EE66E8A0EE66E53D9E55271
:101E4000E5528A9A89863C0EE66EE66A67EC3CF0BB
:101E5000E552E552E66A050EE66E04D9E552E55212
:101E6000E66AE66AE66AE66A57DBE552E552E5525B
:101E7000E552E66AE66AE66AE66A4EDBE552E55254
:101E8000E552E552E66AE66AE66AE66A45DBE5524D
:101E9000E552E552E552E66A020EE66E040EE66E83
:101EA000E66A3ADBE552E552E552E552E66AE66A51
:101EB000E66AE66A31DBE552E552E552E552E66A4A
:101EC000E66AE66AE66A28DBE552E552E552E55243
:101ED000E66AE66AE66AE66A1FDBE552E552E55223
:101EE000E552120029EC14F003E10101860502E13C
:101EF000929A9298E9EC13F001E18A9423EC14F0A1
:101F0000DCEC13F002E605EC14F005E2DF2A010E2A
:101F1000F7E3DB2AF5D715EC14F0190E40EC14F0BA
:101F200080EC13F00AEC14F0020EE15C02E2E16ACC
:101F3000E552E16E9FEF13F0020102010E51800B9A
:101F400003E10101860502E1929A9298939293909F
:101F50008A808A82000000000101845101E18A9494
:101F6000640EE66EE66A67EC3CF0E552E55212005C
:101F70000101855102E18A8601D0899689968A8A73
:101F8000280EB7DB8A9A8A84928A928893829380F9
:101F9000C80E79EF13F0CEDBFE0EDB500BE0020A29
:101FA00009E0010A04E00B0A02E0010A07E1DBDBB9
:101FB00032D802D0D8DB03D838EC14F0C0D3BADB67
:101FC000040EE126DE6ADE6ADE6ADD6ADD52DD527B
:101FD000D9DBD9CFE9FFDACFEAFF0050EE5C015040
:101FE000EE580250EE580350EE580EE2060EE66E22
:101FF000EFEC13F0D9CFE9FFDACFEAFFEE2A000EBB
:10200000EE22EE22EE22E4D7040EE15C02E2E16A67
:10201000E552E16E94D38EDBC2DB06C000F0000116
:10202000E3DB06C0E6FF2CEC14F0F80E1AEC14F01B
:10203000B6DB05C000F006C001F007C002F00001E9
:10204000036AD2DB05C0E6FF2CEC14F0F70E1AECA5
:1020500014F098DBC9DB00C0E6FF2CEC14F0F60EA0
:10206000E9DB6DD3D9CFE6FFE1CFD9FFE6528A9203
:102070008A90DF6ADFCF00F0FE0EDB50E76E0018BB
:10208000E8AE02D0E73402D0E750005C16E2FD0E65
:10209000DBA002D08A8001D08A908A82FD0EDBCF3D
:1020A000F3FFF390F342FD0EF3CFDBFF00000000DF
:1020B0008A9200000000DF2ADDD7DF6ADFCF00F060
:1020C0000A0EE76E0018E8AE02D0E73402D0E750FF
:1020D000005C03E200D0DF2AF1D7E552E552E7CFFA
:1020E000D9FF1200D9CFE6FFE1CFD9FFE652DF6A70
:1020F000DFCF00F0100EE76E0018E8AE02D0E73434
:1021000002D0E750005C1EE2FD0EDB50010B02E046
:102110008A8001D08A908A82D950FD0FE96EFF0E25
:10212000DA20EA6E010E0F0B06E0EC52D890ED3289
:10213000EF32E806FAE1000000008A920000000099
:10214000DF2AD6D700000000E552E552E7CFD9FFDD
:102150001200D9CFE6FFE1CFD9FFE652FD0EDBCF6B
:1021600000F0FE0EDBCF01F0D89000360136FD0EF8
:1021700000C0DBFFFE0E01C0DBFFD950FD0FE96E92
:10218000FF0EDA20EA6EEE90ED9EDF6ADFCF00F000
:10219000100EE76E0018E8AE02D0E73402D0E75028
:1021A000005C1EE2FD0EDB50010B02E08A8001D0D4
:1021B0008A908A82D950FD0FE96EFF0EDA20EA6E0E
:1021C000010E0F0B06E0EC52D890ED32EF32E8062C
:1021D000FAE1000000008A9200000000DF2AD6D752
:1021E000E552E552E7CFD9FF1200A4DAACDA7ADF84
:1021F000E552E5528A90A3D29DDAA5DAAADFE5522C
:10220000E5528A909CD2D9CFE6FFE1CFD9FF030EE9
:10221000E126FD0EDBCFE6FFFE0EDBCFE6FF22DF81
:10222000E552E55293809288DF6ADFCF00F00A0E14
:10223000E76E0018E8AE02D0E73402D0E750005C49
:1022400003E200D0DF2AF1D7010EDB6A020EDB6A5F
:102250008A82000000008A9200000000DF6ADFCF5F
:1022600000F00E0EE76E0018E8AE02D0E73402D0A0
:10227000E750005C22E28A82000000008150010BDE
:10228000026E036ADF5002C000F003C001F005E0F7
:10229000D89000360136E804FBE1D950010FE96E11
:1022A000DACFEAFF0050EE120150ED1200000000FC
:1022B0008A9200000000DF2AD2D78A820000000044
:1022C0008A9200000000020102010E51800B03E11E
:1022D0000101860501E19298939000000000010E33
:1022E000DBCF00F0020EDBCF01F000C0F3FF01C036
:1022F000F4FF00D0030EE15C02E2E16AE552E16E18
:10230000E552E7CFD9FF1200D9CFE6FFE1CFD9FFE1
:10231000020EE126FD0EDBCFE6FFFE0EDBCFE6FF71
:10232000A1DEE552E552DF6ADFCF00F0080EE76E6E
:102330000018E8AE02D0E73402D0E750005C0BE2B0
:102340008A90000000008A82000000008A9200004B
:102350000000DF2AE9D793809288DF6ADFCF00F0A0
:102360000A0EE76E0018E8AE02D0E73402D0E7505C
:10237000005C03E200D0DF2AF1D7010EDB6ADF6ADE
:10238000DFCF00F0080EE76E0018E8AE02D0E734A9
:1023900002D0E750005C1DE28A82000000008150FC
:1023A000010BDF5206E0DFCFF3FFE846FE0BF3063A
:1023B000FCE1006E010EDBCFE7FF0050E712010EDB
:1023C000E7CFDBFF000000008A9200000000DF2A58
:1023D000D7D7020102010E51800B03E101018605EE
:1023E00001E19298939000000000010EDB5000D0B4
:1023F000006E020EE15C02E2E16AE552E16E00501D
:10240000E552E7CFD9FF1200D9CFE6FFE1CFD9FFE0
:10241000030EE1268A908A808A828A928A90DF6AF5
:10242000DFCF00F0030EE76E0018E8AE02D0E7340D
:1024300002D0E750005C08E28A82000000008A9225
:1024400000000000DF2AECD7010EDB6A020EDB6A17
:10245000DF6ADFCF00F0080EE76E0018E8AE02D0AA
:10246000E73402D0E750005C08E28A8200000000F6
:102470008A9200000000DF2AECD793809288000047
:102480000000DF6ADFCF00F0100EE76E0018E8AE44
:1024900002D0E73402D0E750005C1EE28A820000DE
:1024A00000008150010B026E036ADF5002C000F091
:1024B00003C001F005E0D89000360136E804FBE1E6
:1024C000D950010FE96EDACFEAFF0050EE12015049
:1024D000ED128A92DF2AD6D7020102010E51800B3B
:1024E00003E10101860501E1929893908A90010E23
:1024F000DBCF00F0020EDBCF01F000C0F3FF01C024
:10250000F4FF00D0030EE15C02E2E16AE552E16E05
:10251000E552E7CFD9FF1200D9CFE6FFE1CFD9FFCF
:10252000030EE1268A90DF6A040EDF5C06E28A82EF
:10253000000000008A92DF2AF7D7FB0EDB50E76E1F
:10254000020EE7CFDBFFDF6A080EDF5C14E2020E4B
:10255000DBA002D08A8001D08A90020EDBCFF3FF8D
:10256000F390F342020EF3CFDBFF8A8200000000FB
:102570008A92DF2AE9D78A90FC0EDB50E76E020EC2
:10258000E7CFDBFFDF6A080EDF5C14E2020EDBA0A0
:1025900002D08A8001D08A90020EDBCFF3FFF39045
:1025A000F342020EF3CFDBFF8A82000000008A9222
:1025B000DF2AE9D78A90FD0EDB50E76E020EE7CFE7
:1025C000DBFFDF6A080EDF5C14E2020EDBA002D044
:1025D0008A8001D08A90020EDBCFF3FFF390F342A2
:1025E000020EF3CFDBFF8A82000000008A92DF2A0E
:1025F000E9D78A90030EE15C02E2E16AE552E16EFE
:10260000E552E7CFD9FF12008A8019D98A907FD886
:1026100030EF14F08A9013D98A8087EF13F08AD8AC
:10262000020EE126FE0EDB50E76E010EE7CFDBFF68
:10263000DF6A080EDF5C0DE2010EDB50800B8008C4
:1026400002E18A8001D08A90D5D8F9D809D9DF2A49
:10265000F0D7938092888A825AD88150010BDF6E1E
:10266000FFD802010E51800B03E10101860501E153
:1026700092989390DF50006E020EE15C02E2E16AF4
:10268000E552E16E00505BD055D8020EE1269380F2
:10269000928892988988010EDB6ADF6A080EDF5CF7
:1026A00008E28A8234D8A6D881B0DB80D9D8DF2A64
:1026B000F5D79288899802010E51800B03E1010140
:1026C000860501E19298939022D8FE0EDB0402E188
:1026D0008A8001D08A908A821AD8C2D8010EDB5033
:1026E000006E020EE15C02E2E16AE552E16E00502A
:1026F00026D0E66EE66A67EC3CF0E552E552120041
:10270000E66AE66AE66AE66A07DF38EF14F0020E68
:10271000E66E6DEC3FF0E5521200E66A040EE66EDE
:1027200064DD38EF14F0B20EE66EC20E9CD8120EC5
:10273000E66E1200D9CFE6FFE1CFD9FF1200E552D5
:10274000E7CFD9FF1200FD0EDBCFE6FFFE0EDBCF99
:10275000E6FF88DCE552E552FB0EDBCFE6FFFC0E20
:10276000DBCFE6FF1200D950FA0FE96EFF0EDA2038
:10277000EA6EEECFE6FFEECFE6FFEECFE6FFEFCF5D
:10278000E6FF1200FB0EDBCF00F0FC0EDBCF01F00A
:10279000FD0EDBCF02F0FE0EDBCF03F01200FB0ECE
:1027A000DBCF04F0FC0EDBCF05F0FD0EDBCF06F037
:1027B000FE0EDBCF07F01200DECF00F0DDCF01F020
:1027C000D89001501200020EE12602010E51800B3A
:1027D0001200939293908996010184511200E66E43
:1027E00041DCE552E5521200016A026A036A0E0EEC
:1027F00001121200010EDBCFF3FFF39EF346F3CF7D
:10280000DBFF12000A0E33EF14F02C0E005C010EF9
:102810000158120075DFE66A020EE66E040EE66EDF
:10282000E66A7ADE25D880EF13F07DDF8A0E1BD8AA
:102830003DEF14F0E66E6E0EE66E8DEF13F067DF7F
:102840008A8287EF13F00A0E54DF8986DE6ADD6A1A
:10285000120070DFE3EF13F001C0E6FF8DEF13F01D
:102860008A9287EF13F0E66E3DDCE552E5521200E6
:10287000E552E552E552E5521200010E79EF13F0F0
:0A28800038DFE66A050EEFEF13F0F3
:06288A0096EC19F0F70EB8
:10289000DBA002D073EC0DF002010C510D112CE005
:1028A000F70EDBCFE6FFF80EDBCFE6FFF90EDBCF4E
:1028B000E6FFFA0EDBCFE6FFD950FB0FE96EFF0E05
:1028C000DA20EA6EEECFE6FFEECFE6FFEECFE6FFD0
:1028D000EFCFE6FF05D00DC2FAFF02010C51F96EF1
:1028E000FADF006E080EE15E0050F70EDBA208D0A2
:1028F000B8EC0FF0010E05D0B8EC0FF0030E01D0CC
:10290000020EF1EF18F011EC19F0F70EDBA00DD06C
:10291000A7EC19F0D1EC19F02AEC19F0070EE66ECD
:10292000E66A200EE66E99EC18F00201106B08ECD6
:1029300019F01019E8AE02D0E73402D0E750105D6C
:1029400001E385D08A0EE66EE66A240E50EC19F09B
:102950000A0EAAEC19F0800EE66E0F0EBEEC19F00E
:10296000900EE66E010EE66E880E50EC19F0020134
:102970001029066E076A06BE07689EEC18F010C2A2
:1029800002F0036A02BE03689BEC19F0DE6E05C01C
:10299000DDFF060E006E016A200E026E036ADECFB6
:1029A00004F0DDCF05F0066A076A066A076A040EBE
:1029B0001F0B07E0D8900436053606360736E806C2
:1029C000F9E104500012055001120650021207509E
:1029D000031253EC19F08CEC12F04BEC19F02AECCA
:1029E00019F0860EE66E1B0EE66EBB0E50EC19F06B
:1029F000CEEC19F0580EE66E050EBEEC19F0380E4E
:102A0000AAEC19F0A90EE66E0A0EBEEC19F0390E0A
:102A1000AAEC19F0610EE66EE70EE66EA80E50EC19
:102A200019F0CEEC19F0020E81EC19F0CEEC19F091
:102A3000610EE66EE70EE66EA90E50EC19F0A7ECFB
:102A400019F02AEC19F0020E0201102770D7020EBD
:102A5000E15C02E2E16AE552E16EC3D32FEC19F0CA
:102A60000201116BD5DB1119E8AE02D0E73402D0B8
:102A7000E750115D2EE211C200F0016A026A036A9A
:102A800000AE03D00168026803686ADB11C206F079
:102A9000076A06BE076852DB11C202F0036A02BE73
:102AA0000368C2EC19F011C204F0056A04BE05689F
:102AB0001FDB11C20AF00B6A0ABE0B686ADB11C287
:102AC00004F0056A04BE0568B4EC19F00201112790
:102AD000C9D787D3C4DBE66AEF0E3EDBE66AF80EA1
:102AE0003BDB0201126B94DB1219E8AE02D0E73433
:102AF00002D0E750125D2AE212C200F0016A00BE65
:102B000001687DEC19F012C206F0076A06BE07687C
:102B100015DB12C202F0036A02BE0368C2EC19F0B0
:102B200012C204F0056A04BE0568E2DA12C20AF0B5
:102B30000B6A0ABE0B682DDB12C204F0056A04BEE4
:102B40000568B4EC19F002011227CDD74AD387DB10
:102B5000A60EE66E840E00DB0201136B59DB13191F
:102B6000E8AE02D0E73402D0E750135D2DE213C285
:102B700000F0016A00BE0168C0DB13C206F0076AFC
:102B800006BE0768DBDA13C202F0036A02BE0368FE
:102B90004CDBE66E05C0E6FF14DB13C204F0056AE9
:102BA00004BE0568A5DA13C20AF00B6A0ABE0B68F8
:102BB000F0DA13C204F0056A04BE05683BDB01DBF2
:102BC000020E02011327CAD70CD3B0DB7F0EE66ECC
:102BD0008E0EC2DA7F0EE66E8C0EBEDA0201146B28
:102BE00017DB1419E8AE02D0E73402D0E750145DC9
:102BF00027E214C200F0016A00BE01687EDB14C245
:102C000006F0076A06BE076899DA14C202F0036A82
:102C100002BE0368B7DB14C204F0056A04BE05688F
:102C200067DA14C20AF00B6A0ABE0B68B2DA14C281
:102C300004F0056A04BE056897DB02011427D0D7AB
:102C4000D0D274DBF70EDBCFE6FFF80EDBCFE6FF6A
:102C5000F90EDBCFE6FFFA0EDBCFE6FF2DDBEECF82
:102C6000E6FFEECFE6FFEECFE6FFEFCFE6FF30EC7C
:102C700008F0006E080EE15E0050B3D2A5DADBA0CA
:102C80000BD080DAB2DAE8AE02D0E73402D0E750F7
:102C9000005C02E228DBF6D70201156BB9DA1519E0
:102CA000E8AE02D0E73402D0E750155D24E2A7DA9F
:102CB00015418FDAE8AE02D0E73402D0E750005C6D
:102CC00008E39DDA15419FDA04E099DA1541A4DAA8
:102CD0000EE11529066E076A06BE07682FDA15C2CF
:102CE00002F0036A02BE0368F6DA0A0E39DBEBDA99
:102CF00002011527D3D7030EE15C02E2E16AE55237
:102D0000E16E6FD261DADBA00BD03CDA6EDAE8AEAE
:102D100002D0E73402D0E750005C02E2E4DAF6D7F2
:102D20000201166B75DA1619E8AE02D0E73402D04C
:102D3000E750165D24E263DA16414BDAE8AE02D0C2
:102D4000E73402D0E750005C08E359DA16415BDA59
:102D500004E055DA164160DA0EE11629066E076ABC
:102D600006BE0768EBD916C202F0036A02BE03680A
:102D7000B2DA170EF5DAA7DA02011627D3D7030E57
:102D8000E15C02E2E16AE552E16E2BD21DDADBA0E2
:102D90000BD0F8D92ADAE8AE02D0E73402D0E750F7
:102DA000005C02E2A0DAF6D70201176B31DA1719DC
:102DB000E8AE02D0E73402D0E750175D23E21FDA15
:102DC000174107DAE8AE02D0E73402D0E750005CE2
:102DD00008E315DA174117DA04E011DA17411CDAB3
:102DE0000DE11729066E076A06BE0768A7D917C244
:102DF00002F0036A02BE03686EDAFED964DA0201E9
:102E00001727D4D7030EE15C02E2E16AE552E16ED6
:102E1000E8D1DAD9DBA00BD0B5D9E7D9E8AE02D03A
:102E2000E73402D0E750005C02E25DDAF6D7020137
:102E3000186BEED91819E8AE02D0E73402D0E7508B
:102E4000185D1FE2DCD91841C4D9E8AE02D0E734DE
:102E500002D0E750005C04E3D2D91841D4D90DE187
:102E60001829066E076A06BE076868D918C202F0FC
:102E7000036A02BE036833DABFD925DA02011827D4
:102E8000D8D7030EE15C02E2E16AE552E16EA9D116
:102E90009BD9DBA00BD076D9A8D9E8AE02D0E73415
:102EA00002D0E750005C02E21EDAF6D70201196B8D
:102EB000AFD91919E8AE02D0E73402D0E750195D56
:102EC00059E29DD9194185D9E8AE02D0E73402D044
:102ED000E750005C04E393D9194195D947E11929DA
:102EE000066E076A06BE076829D919C202F0036A8E
:102EF00002BE03689AD9FAD9DF6ADFCF00F0190E53
:102F0000E76E0018E8AE02D0E73402D0E750005C6C
:102F10002DE23BDA080E24DA640EE66EE66A7BECFC
:102F20003CF0E552E55268D9040EE66E060EE66EF8
:102F300003EC11F0E552E552F4CF01F0010EDB5045
:102F4000F31812E1020EDB5001180EE1DFCF02F0A0
:102F5000160EE76E0218E8AE02D0E73402D0E75052
:102F6000025C02E2160EDF6EDF2AC7D7ACD902017F
:102F700019279ED7030EE15C02E2E16AE552E16E99
:102F800030D122D9DBA00BD0FDD82FD9E8AE02D0AA
:102F9000E73402D0E750005C02E2A5D9F6D702017F
:102FA0001A6B36D91A19E8AE02D0E73402D0E750CE
:102FB0001A5D1EE224D91A410CD9E8AE02D0E734DA
:102FC00002D0E750005C04E31AD91A411CD90CE185
:102FD0001A29066E076A06BE0768B0D81AC202F040
:102FE000036A02BE03687BD96ED902011A27D9D7BA
:102FF000030EE15C02E2E16AE552E16EF2D0E4D850
:10300000DBA00BD0BFD8F1D8E8AE02D0E73402D0B5
:10301000E750005C02E267D9F6D702011B6BF8D8D3
:103020001B19E8AE02D0E73402D0E7501B5D22E264
:10303000E6D81B41CED8E8AE02D0E73402D0E75044
:10304000005C08E3DCD81B41DED804E0D8D81B4183
:10305000E3D80CE11B29066E076A06BE07686ED826
:103060001BC202F0036A02BE036839D92CD90201DF
:103070001B27D5D7030EE15C02E2E16AE552E16E5F
:10308000B0D0CFD802011C6BC3D81C19E8AE02D057
:10309000E73402D0E7501C5D1DE21C29066E076A6A
:1030A00006BE07684BD81CC202F0036A02BE036862
:1030B000BCD8DE6E05C0DDFFDECFE6FFDDCFE6FF6C
:1030C000020EE66E25D9080E55D896D8FCD8020116
:1030D0001C27DAD7020EE15C02E2E16AE552E16EFA
:1030E00080D01CD9020ECBD0A0D800D9C5EF19F0E2
:1030F000066A076AE1D8EE500424006EEE500520FF
:10310000016EEE500620026EEE500720036E002A7C
:10311000000E012202222CD9010EE76EF90EDBCF40
:1031200008F0FA0EDBCF09F0E7500826000E09225E
:103130001200E66A8CEC12F04BEF19F0F90EDB503E
:103140000624E96EFA0EDB500720EA6EEFCF04F09A
:1031500004C005F0046A1200E66EE66AD7EF19F0C3
:10316000ABD8EE500026EE500122EE500222EE5077
:10317000B8EF19F0F5D80A0E81EF19F0060EE66ED9
:1031800039EF19F0000EE66EE66AE66AC1D8DF6A2A
:10319000120008500A24E96E09500B20EA6EEFCFA6
:1031A00006F006C007F0066A010EE76EF90EDBCFE7
:1031B00002F0FA0EDBCF03F0E7500226000E0322E6
:1031C0001200ACD8060E5BD0B1D8030EE126F70E84
:1031D00012007F0BE552E724006E040EE76E001824
:1031E0001200E552E7CFD9FF1200DFCF00F0FB0E4F
:1031F000DB50E76E001812000E0EB0EF19F0FB0E58
:10320000DBCFE6FF12007F0BE552E7240708120030
:10321000F80EDB50E76E12007F0BE552E72408083A
:10322000120084D8020EE126120085D8006E05C077
:1032300001F0120002500424E96E03500520EA6EEA
:10324000EF5000010610006E07C001F0E66E07C0E7
:10325000E6FF1200E66AE66AE66A99EF18F066D8B9
:10326000A60EE66E8E0E78DFA60EE66E8C0EACEF26
:1032700018F0E66E32EC10F0E552E552120041D83B
:103280008A92010E3ED8000EE66EE66A72EC10F0ED
:10329000E552E5521200E552E552E552E5521200C0
:1032A000E66E99EF18F000C0E6FF01C0E6FF02C02D
:1032B000E6FF03C0E6FF1200D950FB0FE96EFF0ED8
:1032C000DA20EA6E12005ADF020E1200E66E05C026
:1032D000E6FF71EF18F008DF180EBAEF18F004DF00
:1032E000080EBAEF18F04ADFDF2A1200010E00C004
:1032F000DBFF020E05C0DBFF1200026A036AB0EFBB
:1033000018F0E66EE66A67EC3CF0E552E552120012
:10331000060EE66EFCEC10F04BEF19F00F0EE66EA9
:1033200046D8E66A030EA5DF8A821200D9CFE6FFEF
:10333000E1CFD9FF1200F90EDB500224E96EFA0E3C
:10334000DB500320EA6EEF5000010410120026D873
:10335000D1EF19F0E66E3B0EE66E880E50EF19F0D5
:10336000E66E060E39EF19F065DFBBDE020E1200C5
:10337000032299DF0BEC10F04BEF19F0E66E200EF4
:1033800050EF19F052DF66EF19F0010EDBCFE6FFC8
:10339000020EDBCFE6FFE66E88EF19F05BDF2AEF67
:1033A00019F0E66A010EE66E040E50EF19F0040EF5
:0A33B000E66EF5EC10F04BEF19F09B
:0633BA00090EC26EA60E12
:1033C000C06E0F0EC16E92841200F7EC1DF0E65233
:1033D000DF6A0C0EC16EC282C2B2FED705EC1EF0CF
:1033E000C3CFEFFF010EE76E05EC1EF0E750E926B4
:1033F000000EEA22C4CFEFFFC168E552FCEF1DF0DA
:10340000070E8B12F80E9416938CD7DF8150400B69
:1034100001E0010E0101876F929092929396939A28
:103420009390939293949296899689989288899A88
:10343000928A8A868A9A8A908A92F18E02D82DEF91
:103440001AF0C00EF2129D809E909F80D10ECF6E1A
:103450001F0ECE6E010ECD6E1200E00EF212F2942F
:10346000440ED66EC30ED56E1200C1DBFE0EDB50CD
:10347000010BE81CE8B08B80E8A08B90FE0EDB50BF
:10348000020BE8407F0BE81CE8B08B82E8A08B922F
:10349000FE0EDB50040BE840E8403F0BE81CE8B0B0
:1034A0008B84E8A08B94A8D3A2DB0A0EE126060E3B
:1034B00002013A5D03E36D50020B02E0C0DA82D2F2
:1034C000400EE66E000EE66E010EE66E78EC3DF004
:1034D000E552E552E552E66ED950020FE96EDACFB9
:1034E000EAFFE552E750EE6EED6AD950020FE96E41
:1034F000DACFEAFFEE50ED1008E104010C51800B29
:1035000004E10201305131110FE1020EDBCF00F076
:10351000030EDBCF01F0013401E344D20050000878
:10352000000E015401E33ED201010051D50A01E130
:1035300015D2150A01E1BCD1700A01E182D1100A4D
:1035400001E12DD1300A01E113D1100A01E107D1C7
:10355000F00A01E1F6D0100A01E1E3D0300A01E1FE
:10356000D3D0840A01E17CD0050A6DE0910A67E0BE
:10357000920A64E0E20A55E0100A28E0300A1FE0EF
:10358000C30A04E0030A01E008D213D0010EE66E7C
:10359000ABEC3CF0E55202012F6B0A0E2F5D08E206
:1035A000070EE66E1ADBE66A18DB02012F2BF5D751
:1035B0000101030E406F0201010E2F6FF3D1050EC2
:1035C0004CDB01C1E6FFABEC2EF0CCD0060E45DBA8
:1035D00001018951020A16E0010A0DE00B0A0BE015
:1035E000010A09E00D0A02E0010A18E1E4DAE66ADC
:1035F000E66AE6680FD0DFDAFE0EE66EE6683F0E9A
:10360000E66E08D0B8EC0FF0D6DA060EE66E200EA5
:10361000E66EE66AE66ADEEC2AF0F2DA0201020EF3
:10362000BAD0050EA0DA02E0B6DAFEE1A5DA02E0D1
:10363000ABDAFEE106DB28EC04F08FD00585015102
:10364000080801E30585060E8EDA02E0A4DAFEE141
:1036500093DA02E099DAFEE1FADADEEC2AF06DD0D4
:10366000060E81DA02E097DAFEE186DA02E08CDA11
:10367000FEE1EDDADEEC2AF0C3DA010107070751BB
:10368000006E016AFF0E001803E1015001E1060718
:10369000065105E1075103E10201306B03D0010E31
:1036A0000201306F316B0101895105E0890503E0AA
:1036B000020E895D06E101010151FE0BE842006E38
:1036C00002D001C100F0016A026A036AD950040FF6
:1036D000E96EDACFEAFF0050EE260150EE220250EA
:1036E000EE220350EE22040EDBCF04F16ADA080E5C
:1036F00093DAFEE100C003F1040E63DA100E8CDAF7
:10370000FEE100C002F11AD0050E2DDA02E043DA24
:10371000FEE132DA02E038DAFEE193DAEEEC26F08E
:103720001CD0060E20DA02E036DAFEE125DA02E0ED
:103730002BDAFEE18CDA6DEC32F062DA01C12FF2A5
:103740002BD0050E10DA02E026DAFEE115DA02E0EF
:103750001BDAFEE176DA45EC14F052DA04D001C14E
:10376000E6FF37D9E5520101406F0201010E13D087
:10377000160E006E6F0E016E026A00C0E6FFE66E66
:1037800002C0E6FF83DA08EC3EF0036E050EE15E50
:1037900003500201120E2F6F040E5FDA03D1070EE1
:1037A0005CDA01010151030A35E0010A0FE0030A66
:1037B0000AE0010A01E0F6D0290EE66E0AD9E552C8
:1037C00073EC0DF0E5D0B8EC0FF0E2D002C100F0E0
:1037D000016A026A036AD0D902E0D6D9FEE123DA8F
:1037E000100E1F0B07E0D890083609360A360B3644
:1037F000E806F9E142DA00C0E6FF01C0E6FF02C0D8
:10380000E6FF03C0E6FF8CEC12F0E552E552E5520C
:10381000E552BED0010EE66E04EC12F0E552020E47
:10382000F3CFDBFF030EF4CFDBFF020EDBCF40F163
:10383000030EDBCF01F001C000F0016A00C041F1CE
:1038400034D00151050A2DE0010A16E0070A10E004
:10385000010A08E0030A01E07FD08AA27BD092AA85
:1038600005D07AD08AA076D092B876D0020E96D0C3
:103870008AA472D0050E92D00201010E2F6F8AB673
:1038800003D00101040E0BD08AAA02D0010107D097
:1038900089A603D00101030E02D00101050E406F7D
:1038A00081D0F4D992DDE552E5520201020E79D0C1
:1038B0000151040A3AE0070A2FE0010A15E0030A61
:1038C0004BE10251030A0BE0010A05E0030A44E15F
:1038D00093928A9206D093928A82929A03D093927C
:1038E0008A82928A899A36D00251060A12E0050A23
:1038F0000BE0010A05E0030A2FE193908A9006D0BD
:1039000093908A80929803D093908A809288899825
:1039100021D0928893801ED00251050A04E0060A45
:103920001BE18A9417D08A8415D00251050A0FE052
:10393000010A0BE0070A05E0020A0EE18A868A8A7C
:1039400008D08A868A9A898605D08A9601D08A8686
:103950008A9A8996010E22D0030E20D001A104D0AC
:103960000101010E846F02D00101846B010101A3EA
:1039700004D00101010E856F02D00101856B0101A8
:1039800001A504D00101010E866F02D00101866BF2
:103990000101010E406F020104D0030E406F0201CD
:1039A000010E2F6F02012F510DE004010CBF08D052
:1039B0002FC2E6FF6BD948EC3DF0E552E552E552E7
:1039C00002012F6B0A0EE15C02E2E16AE552E16E50
:1039D00013D10DD9E652FE0EDBCF8AF1DF6A450E18
:1039E000DF5C0AE2DFD8006EFE0EDB50005C02E115
:1039F00088D802D0DF2AF3D7450EDF5C0BE2020144
:103A00000F511F0B0A0806E00F511F0B0101896FB0
:103A1000010E13D001018A6BDF6A450EDF5C07E2FD
:103A2000C1D88A5D02E16DD802D0DF2AF6D7020143
:103A30000F511F0B0101896F030EE552DDD002010A
:103A40003251331104E1100E326F270E336F3207FB
:103A5000000E335B6DA207D03251331120E18B8011
:103A60008B828B74120002013A5102E1010E10D0D8
:103A70003A0508E0020E3A5D02E1040E09D0030E99
:103A80003A5D02E1020E04D0050E3A5D03E1040E38
:103A90002DEF1EF0060E3A5D02E10201346B1200BA
:103AA0008150400B01E0010E0101875D07E081506C
:103AB000400B01E0010E876F81AC010C000CB3D804
:103AC000DCD8040E00C0DBFF050E01C0DBFF060ED4
:103AD00002C0DBFF070E03C0DBFF05C1E6FF01C12B
:103AE000E6FF1200E66ED950040FE96EDACFEAFF66
:103AF000EECFE6FFEECFE6FFEECFE6FFEFCFE6FF3D
:103B00001200B0D80900F5CF00F20900F5CF01F29C
:103B10000900F5CF02F20900F5CF03F20900F5CF55
:103B200004F20900F5CF05F20900F5CF06F209000D
:103B3000F5CF07F20900F5CF08F20900F5CF09F239
:103B40000900F5CF0AF20900F5CF0BF20900F5CF15
:103B50000CF20900F5CF0DF20900F5CF0EF20800C6
:103B6000F5CF0FF2120079D802C100F0016A026AA3
:103B7000036A100E1F0B120003C104F0056A066AE7
:103B8000076A080E1F0B1200D89004360536063659
:103B90000736E8061200D8900036013602360336A2
:103BA000E80612005FD80E0EF626000EF722080077
:103BB000F5507F0B1200070EE66E020EE66E46EF22
:103BC0001EF0DBCF00F0050EDBCF01F0060EDBCFE1
:103BD00002F0070EDBCF03F0120047DCE552C80EFF
:103BE000E66EE66A67EC3CF0E552E5521200D9CF8A
:103BF000E6FFE1CFD9FF1200E552E7CFD9FF12006F
:103C0000006E080EE15E00501200FD0EDBCFE9FFF2
:103C1000FE0EDBCFEAFF1200D890033202320132EF
:103C20000032E8061200045000120550011206503E
:103C300002120750031204C108F0096A0A6A0B6AEB
:103C400012003DDF060EE66E010E72EF1DF037DF4B
:103C5000400EE66E010E72EF1DF0E66E35EC1AF0C6
:103C6000E5521200DF50100DF3CFF6FFF4CFF7FF4F
:103C7000C60EF6266A0EF7221200085000120950EE
:103C800001120A5002120B5003121200400EE66E8F
:063C9000010EE66E1200B9
:0A3C96007CEC22F0610EE66EE70EF2
:103CA000E66EA80EE1DA99DB98DBDF6ADF50006E82
:103CB000016AD890015004E6C80E005C000E01585D
:103CC0002FE28BDB00DB020EE66E3B0EE66E800E13
:103CD0008BDB220EE66E3C0ED8DA7FDB7ADB05E169
:103CE0000101860502E0000E01D0010E05DB75DB47
:103CF000020EDB50800B14E00A0EDF5C02E2010EC4
:103D000001D00A0E006E016A00BE016800C0E6FF25
:103D100001C0E6FF67EC3CF0E552E552DF2AC6D76A
:103D2000D2DA000E006E030EE15C02E2E16AE552B7
:103D3000E16E0050F1D2EBDAFD0EDBCF00F0FE0EAB
:103D4000DBCF01F0040E3BDBFEE1026A19DB02BEB1
:103D50000368A0EC22F0E66AE66AE9DA900EE66E05
:103D6000010E93DAE66AE66AE2DAE66A080EC1DB79
:103D7000D3D2CDDA640E98D3CADA4F0E95D3BCDB1A
:103D8000F50EDBCF00F0F60EDBCF01F0040E17DBF3
:103D9000FEE1026A01BE0268F3DA02BE0368D0DB0C
:103DA000020EDB6AF80EDB50F36E020EDBCFF4FF7F
:103DB000F350F45C01E3BDD0006AB3DBF2DACADA97
:103DC000FEE15EDB070E006EACDBD4DA02E0A8DABF
:103DD000FEE14DDADE6ADD6ADECF00F0DDCF01F014
:103DE000060E005C000E01585BE2006AA3DA020EC8
:103DF000DB500A6E0B6AB5DA0A501E24086E0B50AF
:103E00001F20096EF90EDB500824A4DB0920EA6E9E
:103E1000EFCF04F0056A74DB02E082DAFEE14BDBEF
:103E2000020EDB50126E136A9CDA12501E24106EC2
:103E300013501F20116E010E1026000E1122F90ED4
:103E4000DB50102487DB1120EA6EEFCF0CF00D6AF7
:103E50000E6A0F6A0C0E1F0B07E0D8900C360D3659
:103E60000E360F36E806F9E10C5000120D50011223
:103E70000E5002120F500312DECF14F0DDCF15F0FA
:103E8000166A176A145000121550011216500212C9
:103E900017500312A7DADF2A010E9EE3DB2A9CD714
:103EA000E66A030EE66EEB0E4EDBA8DAA7DA0C0E1E
:103EB000006E020EDBCFE7FF0050E726020EE7CFD1
:103EC000DBFFF40EDBCF09F00A6A0B6A0C6A020E04
:103ED000DBCF05F0066A076A086A89DAEE50052624
:103EE000EE500622EE500722EE50082205C01EF0CA
:103EF00006C01FF007C020F008C021F009C023F061
:103F00000AC024F00BC025F00CC026F0FFEC3EF0F8
:103F10001AC001F01BC002F01CC003F01DC004F069
:103F20001A501B101C101D1002E1B5DE3BD7000E0D
:103F300039D7F40E2BDA020EDBCF04F0056A066ADD
:103F4000076A55DAEE500426EE500522EE5006229E
:103F5000EE500722B9DA08C023F009C024F00AC0E5
:103F600025F00BC026F0FFEC3EF01AC000F01BC09D
:103F700001F01CC002F01DC003F01A501B101C10F1
:103F80001D1005E0F70EDB50020B01E084DE030E8E
:103F9000E15C02E2E16AE552E16EBED1B8D9600EA1
:103FA000E66E040E52D2B3D9C00EE66E010E4DD2AB
:103FB000AED9020EE126070E006EBCD90468056872
:103FC000066ABDD9040E1F0B02E0AAD9FEE14FD943
:103FD000F60EDBCF00F0F70EDBCF01F0040EEFD9C9
:103FE000FEE1026ACDD902BE0368AADA006AA2D94C
:103FF000046A056A0668A3D90C0EACD9FEE140DA62
:1040000001018C6BF80EDB50E76E8C19E8AE02D024
:10401000E73402D0E7508C5D36E28C29066E076AE1
:1040200006BE0768F90EDB50062494DA0720EA6E14
:10403000EFCF04F004C005F0046A8CC102F0036AFB
:1040400002BE0368F90EDB50022484DA0320EA6E14
:10405000EF5000010410DE6E05C0DDFF060E006E9D
:1040600069D9DECF04F0DDCF05F04ADA02E058D995
:10407000FEE1FDD8B2D9860EE66E1B0E3ADA020ECC
:1040800001018C27BFD7020EE15C02E2E16AE55232
:10409000E16E42D13CD9040EE66EBFD138D9030E91
:1040A000E66EBBD134D9E66AB8D131D9040EE66EDA
:1040B000400E0FD97DDF046E090EE15E04502CD155
:1040C0001BDADF6AF70EDBA428D0FB0EDBCF1EF075
:1040D000FC0EDBCF1FF0FD0EDBCF20F0FE0EDBCFA2
:1040E00021F0030E12DAC7EC3EF01AC01EF01BC01E
:1040F0001FF01CC020F01DC021F0020E06DAFFECFC
:104100003EF0FB0E1EC0DBFFFC0E1FC0DBFFFD0EF2
:1041100020C0DBFFFE0E21C0DBFF006A87D941D93A
:1041200019D9FEE1ADD9060E006E80D923D902E07F
:10413000F7D8FEE19CD8470EE66E780EE66EF7D80B
:104140004CD9F70EDBB45BD0DF6A32D9E8AE02D0CF
:10415000E73402D0E750005C74E2960EE66E0B0E78
:10416000E66E94D905E10101860502E0000E01D05A
:10417000010EC2D8DFCF00F0016A00BE016898D8F6
:10418000DF28006E016A00BE01688DD81DD9BA0E05
:104190006BD8D60EE66ED30EE66E78D905E1010136
:1041A000860502E0000E01D0010EA6D8020EDF2423
:1041B000006E016A00BE01687BD8030EDF24006E2A
:1041C000016A00BE01686FD8E7D860D905E1010136
:1041D000860502E0000E01D0010E8ED8040EDF2409
:1041E000006E016A00BE016863D8050EDF24006E10
:1041F000016A00BE016857D8060EDF26A6D7DF6A1F
:10420000D7D8E8AE02D0E73402D0E750005C19E21C
:10421000C3D83CD905E10101860502E0000E01D0BA
:10422000010E6AD8DFCF00F0016A00BE016840D8F5
:10423000DF28006E016A00BE016835D8020EDF2655
:10424000DFD741D8030EE15C02E2E16AE552E16E9C
:1042500063D05DD8F70EDB5004093BD831DF046E24
:10426000080EE15E045058D06ED9EDEF21F023D94D
:10427000F2EF21F00FD9BBD8EECFE6FFEECFE6FF8D
:10428000EECFE6FFEFCFE6FF1200E66E880EF4EF0A
:1042900021F0D8900436053606360736030E35D998
:1042A00013D9FFEF3EF019D902C0EFFFEDEF21F077
:1042B00014D9010EDBCFEFFF020EDBCF03F003C0FA
:1042C00002F0036A1200E66A020EE66E040EA3EF25
:1042D00022F0E66EDFD8006AFE0E016E7F0E026EDF
:1042E000036A85D8EE500026EE500122EE500222DD
:1042F000EE50032297EF22F0E66E04EC12F0E55246
:10430000DE52F3CFDEFFF4CFDDFFDD521200D9CF56
:10431000E6FFE1CFD9FF1200E552E7CFD9FF120047
:10432000D8900436053606360736E8061200200E09
:10433000F4EF21F0016A200E026E036A1200076A90
:1043400056D8EE500416EE500516EE500616EE50F6
:1043500007161200D8900732063205320432E806FA
:104360001200020E206E216ADECF25F0DDCF26F08E
:1043700023EF3FF01EC004F01FC005F080EF22F0D5
:104380000A0E0012240E0212036A1200DBCF08F09C
:10439000096A0A6A0B6A1200B60EE66E0B0EE66E2A
:1043A000120020C006F0046A056A076A0C0E1200AB
:1043B000DFCF00F0F80EDB50E76E00181200D89047
:1043C00000360136E8041200B60EE66EDB0EE66E2D
:1043D000120002010E51800B1200E66AE66AE66ADC
:1043E000E66A98D0A4D896D0E66EE66A93D0D95003
:1043F000FB0FE96EFF0EDA20EA6E1200CDDFBB0E76
:1044000033DFE2DFBB0E30DFB60EE66EEB0E9ED87A
:10441000B60EE66E1B0EA6EF22F0400EE66E2ADF09
:10442000C7DD006E090EE15E005076D783DFFB0E1C
:10443000DBCF04F0FC0EDBCF05F0FD0EDBCF06F08A
:10444000FE0EDBCF07F049EF21F0E66E400EE66E80
:10445000F70EDBCFE6FF0EDF92DC006E0B0EE15EA7
:1044600000505AD70850EE24046E0950EE20056E15
:104470000A50EE20066E0B50EE20076E49EF21F039
:10448000F6DE900EE66E010E45EF21F0BA0EECDE80
:10449000E9EF21F0F80EDBCFE6FFF90EDBCFE6FF08
:1044A000FA0EDBCFE6FF1200E66E400EE66E43DC4E
:1044B000E552E55231D70450001205500112065062
:1044C000021207500312120004C01EF005C01FF0B4
:1044D00006C020F007C021F01200F90EDB500024C6
:1044E00039D80120EA6E12000A0EE66E3B0E45EF47
:1044F00021F02CD84BEF1EF00ADF030EE12612004C
:10450000066A076A040E1F0B1200236E246A256ACE
:10451000266A12008CEC12F0E552E552E552E552A3
:10452000120008DF020E32DF62DF32EF22F000C03D
:10453000E6FF01C0E6FF02C0E6FF03C0E6FF12008F
:1045400051DF74EF22F050DFEDEF21F0E66EBB0E8D
:0C45500034EF21F0E96EFA0EDB5012008F
:04455C00F4DADF6A44
:10456000DF50006E016AD890015004E6C80E005C6E
:10457000000E015813E2DDEC26F005E1010186058D
:1045800002E0000E01D0010E12DB3ADB07E0050E5F
:10459000E66E5FEC3FF0E552DF2AE2D7000E006ED8
:1045A000030EE15C02E2E16AE552E16E005024D3C1
:1045B000CADADCDB640EE66EE66A67EC3CF0E552D4
:1045C000E552DF6ADF50006E016AD890015004E6C0
:1045D000C80E005C000E01581FE2EFDB05E101018F
:1045E000860502E0000E01D0010EE1DA09DB14E0DD
:1045F0000A0EDF5C02E2010E01D00A0E006E016AB3
:1046000000BE016800C0E6FF01C0E6FF67EC3CF0B9
:10461000E552E552DF2AD6D7000E006E030EE15CAC
:1046200002E2E16AE552E16E0050E6D27CDBFD0E6B
:10463000DBCF00F0FE0EDBCF01F0040ED890003689
:104640000136E804FBE1026A0A0E0012240E02128F
:10465000036A02BE0368A1DBABDFCED264DB0F0EC0
:10466000E66E400EE66EE2DFE552E552C5D2A1DB12
:10467000F50EDBCF00F0F60EDBCF01F0040ED89084
:1046800000360136E804FBE1026A01BE02680A0E48
:104690000012240E0212036A02BE03687EDBA00E23
:1046A000E66E0F0E92DBB1DA020EDB6AF80EDB501B
:1046B000F36E020EDBCFF4FFF350F45C01E39CD009
:1046C000DE6ADD6ADECF00F0DDCF01F0030E005CB4
:1046D000000E015862E2006AB9DA020EDB500A6E7F
:1046E0000B6AB9DA0A501E24086E0B501F20096E9F
:1046F000F90EDB500824E96EFA0EDB500920EA6E51
:10470000EFCF04F0056A066A076A040E1F0B02E089
:1047100096DAFEE168DA020EDB50126E136A9BDA5B
:1047200012501E24106E13501F20116E010E102601
:10473000000E1122F90EDB501024E96EFA0EDB5048
:104740001120EA6EEFCF0CF00D6A0E6A0F6A0C0EA4
:104750001F0B07E0D8900C360D360E360F36E806E4
:10476000F9E10C5000120D5001120E5002120F50C0
:104770000312DECF14F0DDCF15F0166A176A14505D
:104780000012155001121650021217500312D9D9F7
:10479000DF2A010E97E3DB2A95D7E66A4BDA800E13
:1047A000E66E48DA7FDAC4DADB0EE66EC1DAEB0ECB
:1047B000E66EBEDA1B0EE66EBB0EE66E7AD9060E0C
:1047C0007DDA52DA02E03BDAFEE1C7DA070E76DA8A
:1047D00054DA5ADAFEE1C1DA560EDCDA670EDADABA
:1047E000BDDE060E006E020EDBCFE7FF0050E726AF
:1047F000020EE7CFDBFF5AD7030EE15C02E2E16A6B
:10480000E552E16EF9D18FDA010EE66E400EE66EEA
:10481000F70EDBCFE6FFF80EDBCFE6FFF90EDBCFBE
:10482000E6FFFA0EDBCFE6FFAEDAEECFE6FFEECF25
:10483000E6FFEECFE6FFEFCFE6FF19DF006E0A0ED0
:10484000E15E0050D9D16FDA070EE126010EDB6878
:10485000020EDB68030EDB68050EDB68F70EDBA0DB
:1048600003D00101010E836F060EDB6AF80EDB50E8
:10487000F36E060EDBCFF4FFF350F45C1AE2010195
:10488000835105E0836BC8D9EFCF82F107D082C195
:10489000DFFFC2D9040EEFCFDBFF0FD9020E006E8F
:1048A000060EDBCFE7FF0050E726060EE7CFDBFF63
:1048B000DDD7F70EDB50020B22E0010183511FE12F
:1048C000070EE66E020EE66ED950040FE66E000E7D
:1048D000DA20E66E060EDBCF00F0016A026A036A98
:1048E00042DA0026EE500122EE500222EE50032260
:1048F00011DA0CD8046E080EE15E0450DED8070E03
:10490000E15C02E2E16AE552E16E76D152DADF6AF9
:10491000F70EDBA42AD0FB0EDBCF1EF0FC0EDBCFA4
:104920001FF0FD0EDBCF20F0FE0EDBCF21F00FDA03
:10493000C7EC3EF01AC01EF01BC01FF01CC020F0D8
:104940001DC021F0020E236E246A256A266AFFEC40
:104950003EF0FB0E1EC0DBFFFC0E1FC0DBFFFD0E9A
:1049600020C0DBFFFE0E21C0DBFF006AC4D985D961
:104970008BD9FEE1F2D949D9060E006EBCD974D9A3
:1049800002E05DD9FEE1E9D9870EE66EF80E1DDA88
:10499000F2D9F70EDBB45ED0DF6A7DD9E8AE02D083
:1049A000E73402D0E750005C01E376D0960EE66E65
:1049B0000B0EE66E7ED905E10101860502E0000ED0
:1049C00001D0010EF4D8DFCF00F0016A00BE01680B
:1049D000E3D8DF28006E016A00BE0168D8D8B60EA1
:1049E000E66EDB0EE66EF5D9D60EE66ED30EE66EFB
:1049F00060D905E10101860502E0000E01D0010E3B
:104A0000D6D8020EDF24006E016A00BE0168C4D849
:104A1000030EDF24006E016A00BE0168B8D842D9D7
:104A200048D905E10101860502E0000E01D0010E22
:104A3000BED8040EDF24006E016A00BE0168ACD847
:104A4000050EDF24006E016A00BE0168A0D8060EC4
:104A5000DF26A3D7DF6A1FD9E8AE02D0E73402D041
:104A6000E750005C19E21ED924D905E10101860551
:104A700002E0000E01D0010E9AD8DFCF00F0016AEB
:104A800000BE016889D8DF28006E016A00BE016897
:104A90007ED8020EDF26DFD7E66A020EE66E040E2F
:104AA0006FD964D9030EE15C02E2E16AE552E16E7E
:104AB000A3D0FDD860D9BBEF26F0010EE66E400E04
:104AC000E66EE66A060EE66ED9CFE6FFDACFE6FFBF
:104AD000DBCF04F0056A066A076A45D90424006E34
:104AE000EE500520016EEE500620026EEE500720BB
:104AF000036E020E005E000E015A025A035A27D9B5
:104B000000C01EF001C01FF002C020F003C021F061
:104B1000C7EC3EF01AC000F01BC001F01CC002F050
:104B20001DC003F0D8900332023201320032F2D8B5
:104B30009EDD086E0A0EE15E08500101010E836FD2
:104B40001200E8D82FD135D95A0EE66E050E3DD9A0
:104B50007A0E20D9AA0EE66E0A0E37D97A0E1AD925
:104B6000290EE66EE70EE66EA80EC0EF26F0D8908E
:104B70000436053606360736EAD804C01EF005C0EE
:104B80001FF006C020F007C021F0FFEF3EF0D6D89E
:104B900002C0EFFFBBEF26F0D1D8010EDBCFEFFF55
:104BA000020EDBCF03F003C002F0036A1200E66ED0
:104BB00004EC12F0E552DE52F3CFDEFFF4CFDDFF5E
:104BC000DD5212004A0EE66E390EE66E800ED8D81F
:104BD0004A0EE66E7C0EE66E880ED2D8CCD8020164
:104BE0000E51800B120004500012055001120650A5
:104BF0000212075003121200E552E7CFD9FF12004C
:104C0000BAD8020EDB50800B1200A00EE66E020E28
:104C1000E66E880EC0EF26F0060EDB50E76EF90E4A
:104C2000DBCFE9FFFA0EDBCFEAFFE750E926000E03
:104C3000EA221200030EE66EEB0EC0EF26F0D890CB
:104C40000436053606360736E8061200016A200EDD
:104C5000026E036A1200020E206E216ADECF25F07A
:104C6000DDCF26F023EF3FF01EC004F01FC005F09B
:104C7000066A076A040E1F0B120020C006F0046AC1
:104C8000056A076A0C0E1200D89007320632053208
:104C90000432E8061200DFCF00F0F80EDB50E76EBA
:104CA00000181200B60EE66E0B0EE66E1200E66AF3
:104CB00079D08FD802010E51800B1200006EC6DF32
:104CC000020EDBCF08F0096A0A6A0B6A5CD808504A
:104CD000EE24046E0950EE20056E0A50EE20066E9A
:104CE0000B50EE20076EB7EF25F0E66E390EE66E3C
:104CF000880EE66E1200AADFFB0EDBCF04F0FC0E7E
:104D0000DBCF05F0FD0EDBCF06F0FE0EDBCF07F0AC
:104D1000B7EF25F000C0E6FF01C0E6FF02C0E6FFE6
:104D200003C0E6FF1200D9CFE6FFE1CFD9FF1200A2
:104D3000BB0EE66EBEDEB60EE66E1200F90EDB505E
:104D40000024E96EFA0EDB500120EA6E1200030E19
:104D5000236E246A256A266A120045DFA1EF25F03A
:104D600005D8E2EF25F00FD8EE501200E66AE66AA9
:104D7000E66A59EF25F0E66AE66AE66A57EF26F03A
:104D8000E66E57EF26F0D950FB0FE96EFF0EDA20E2
:104D9000EA6E1200AADF57EF26F0D3DE4A0EA5DF37
:104DA00059EF25F08CEC12F0E552E552E552E55250
:104DB0001200B9DF030EE1261200D8DFE66A020E08
:104DC000E66E040EDDDFB0EF26F0E66E200EC0EFDB
:0C4DD00026F0BA0EE66E6DDEB6EF26F09F
:044DDC00A9DBF70E4A
:104DE000DBA005D0F80EDB5030E073EC0DF00201D3
:104DF0000A510B112CE0F70EDBCFE6FFF80EDBCFEC
:104E0000E6FFF90EDBCFE6FFFA0EDBCFE6FFD95067
:104E1000FB0FE96EFF0EDA20EA6EEECFE6FFEECF73
:104E2000E6FFEECFE6FFEFCFE6FF05D00BC2FAFFBD
:104E300002010A51F96EFADF006E080EE15E0050C1
:104E4000F70EDBA208D0B8EC0FF0010E05D0B8ECDD
:104E50000FF0030E01D0020EB1D2B4DA12DBA8DBE0
:104E600037DBE66A010EE66E040E80DB5A0EE66E54
:104E7000E66A240E2DDB0A0E7CDBDF6A7ADAE8AE06
:104E800002D0E73402D0E750005C01E3B3D0F00E6B
:104E9000E66E070E81DB900EE66E010EE66E880E62
:104EA00017DB070E006E016A2F0E026E036ADFCF5A
:104EB00008F0096A0A6A0B6A08AE03D009680A6832
:104EC0000B6814DB0850EE24046E0950EE20056ECA
:104ED0000A50EE20066E0B50EE20076E0F0E0516E0
:104EE000066A076A040E1F0B02E070DAFEE148DA78
:104EF000F2DA006A016A200E026E036ADFCF08F060
:104F0000096A08BE096805DA02E060DAFEE138DA0B
:104F1000DF280E6E0F6A0EBE0F680BDA02E068DA49
:104F2000FEE1D9D9010E6FDA020EDF24086E096A9C
:104F300008BE0968EED902E049DAFEE121DA030E83
:104F4000DF240E6E0F6A0EBE0F68F3D902E050DA4E
:104F5000FEE1C1D9020E57DA040EDF24086E096A99
:104F600008BE0968D6D902E031DAFEE109DA050E99
:104F7000DF240E6E0F6A0EBE0F68DBD902E038DA4E
:104F8000FEE1A9D9030E3FDA060EDF24086E096A96
:104F900008BE0968BED902E019DAFEE1F1D9070EB0
:104FA000DF240E6E0F6A0EBE0F68C3D902E020DA4E
:104FB000FEE191D9E66A030EE66EEB0ED7DA010E3A
:104FC000DB6ADBCF00F0040EE76E0018E8AE02D01B
:104FD000E73402D0E750005C0AE2B60EE66E1B0E24
:104FE000E66EBB0EC3DA4DDA010EDB2AEAD7080EF5
:104FF000DF2644D7580EE66E050ECEDA380EB9DA43
:10500000A90EE66E0A0EC8DA390EB3DA610EE66E44
:10501000E70EE66EA80EAADA34DA020E79DA31DA91
:1050200030DA610EE66EE70EE66EA90E9FDAC0DAA0
:105030009DDA020EE15C02E2E16AE552E16EBED168
:1050400025DA97D9E8AE02D0E73402D0E750005C09
:1050500018E2D5D904BE056892DA04BE056893DA71
:1050600002BE0368EED9550E4DDAAA0E4BDAA60E33
:1050700044DAA60EFED903E102013951FAE121DA40
:10508000E0D7020EE15C02E2E16AE552E16E96D100
:10509000FDD96FD9E8AE02D0E73402D0E750005C0A
:1050A00019E2ADD904BE05686ADA04BE05686BDA98
:1050B00002BE0368C6D9A60EE66E820E4FDA67DA24
:1050C00066DA8BD9A60ED5D903E102013951FAE18E
:1050D000F8D9DFD7020EE15C02E2E16AE552E16E47
:1050E0006DD1D4D946D9E8AE02D0E73402D0E7502A
:1050F000005C14E284D904BE056841DA04BE056888
:1051000042DA02BE03689DD9A60EF7D9A60EB1D920
:1051100003E102013951FAE1D4D9E4D7020EE15C8E
:1051200002E2E16AE552E16E49D14CD97F0EE66EAA
:105130009E0E14DA7F0EE66E9C0E10DADF6A19D925
:10514000E8AE02D0E73402D0E750005C23E257D942
:1051500004BE05687ED9620EA9D904BE05685DD972
:10516000630E9FD902BE0368E8D9610E19DA7F0E7B
:10517000E66E840EF3D97F0EC0D97F0E7AD903E193
:1051800002013951FAE131D97F0EE66E940EE6D96B
:10519000DF2AD5D7020EE15C02E2E16AE552E16E58
:1051A0000DD1F7D803E0A1D801E289D8DF6AE1D8B0
:1051B000E8AE02D0E73402D0E750005C08E229D91B
:1051C00000BE0168ACD90A0E74D9E9D8F0D7E5520F
:1051D000F5D0DFD803E089D801E271D8DF6AC9D8F9
:1051E000E8AE02D0E73402D0E750005C08E211D903
:1051F00000BE016894D9170E5CD9D1D8F0D7E5521A
:10520000DDD0C7D803E071D801E259D8DF6AB1D840
:10521000E8AE02D0E73402D0E750005C06E2F9D8ED
:1052200000BE01687CD9BBD8F2D7E552C7D0B1D84F
:1052300005E05BD803E2160E3CD941D8DF6A99D865
:10524000E8AE02D0E73402D0E750005C05E2E1D8D6
:1052500000BE016868D9F3D7E552B0D09AD803E010
:1052600044D801E22CD8DF6A84D8E8AE02D0E73413
:1052700002D0E750005C05E2CCD800BE016853D9EB
:10528000F3D7E5529BD0E66A040EE66EF5EC10F01B
:1052900068D1E66A8CEC12F064D1F90EDB50002480
:1052A000E96EFA0EDB500120EA6EEF50E66EE66A18
:1052B000030EE66E060EE66EFCEC10F052D116D927
:1052C000EECFE6FFEECFE6FFEECFE6FFEFCFE6FF55
:1052D000DFEC0FF046D10A5000120B5001120C50B7
:1052E00002120D5003126BEF2AF000D9D880000E85
:1052F000EE54000EEE54000EEE54000EEE5412006A
:10530000066A076AF3D8EE501200D3D8080E88EF69
:105310002AF0F90EDB500824E96EFA0EDB50092062
:10532000EA6EEFCF04F0056A066A076A040E1F0BE7
:105330001200F90EDB500E24E96EFA0EDB500F203E
:10534000EA6EEFCF0AF00B6A0C6A0D6A0C0E1F0BA7
:105350001200020EE66E040EE66E84EC11F0E552C9
:10536000E552E76E010EE7CFDBFFDB50020B0208D0
:105370001200DFCF00F0F80EDB50E76E00181200CD
:105380000450001205500112065002120750031279
:105390001200CED8E652F70EDB50010B1200060EBB
:1053A000E66EE66E32EC10F0E552E552DF2A1200AE
:1053B000016A026A036A0E0E01121200E552E7CF7B
:1053C000D9FF1200B5D8020EE1261200D89004369B
:1053D000053606360736E8061200050EE66EE66A62
:1053E00046EC3CF0E552E5521200010E88EF2AF03F
:1053F000D8900A360B360C360D36E8061200DFCF91
:1054000004F0056A1200006E016A200E026E036A43
:105410001200DFCF00F0016A120072DF0426EE50A6
:105420000522EE500622EE50072205C000F006C00D
:1054300001F007C002F00001036ABADF05C0E6FF11
:10544000B3D07BD8A80EACD8A60EE66E840EAEEF15
:105450002AF056DF0424006EEE500520016EEE5057
:105460000620026EEE500720036EA2DF00C0E6FFAA
:105470009BD0E66E500E72D8F50E92D888D8A9EF60
:1054800029F0E66AE66AE66A49EF29F09BDFA60E94
:10549000E66E9E0E63D8A60EE66E9C0E5FD8DF6A9F
:1054A00012007ED8DFCF02F0036A120079D8FFEF36
:1054B00029F0E66E060EE66E32EC10F0E552E5528B
:1054C000120093DFA60EE66E940E48D8DF2A120073
:1054D000E66E49EF29F000C0E6FF01C0E6FF02C01A
:1054E000E6FF03C0E6FF8CEC12F03BD0D950FB0F77
:1054F000E96EFF0EDA20EA6E1200E66E820E2ED8FA
:10550000EDEF29F0E66E0E0E29D8A70ED0EF2AF0A7
:10551000E66EE66A67EC3CF0E552E5521200BDDE4D
:10552000180E85EF29F0B9DE080EEFDECFEF29F077
:10553000D9CFE6FFE1CFD9FF1200F90EDB500224EC
:10554000E96EFA0EDB500320EA6EEF50006E016A3E
:10555000E8500E0E011200C0E6FF26D0E66E43EFC3
:1055600029F0E552E552E552E5521200B1DF41EF74
:105570002AF0E66E3B0EE66E880E68EF2AF069DFD1
:10558000A90E56EF2AF049DFAA0E51EF2AF0000EBD
:10559000E66EE66A43EF29F0E66E200E68EF2AF029
:1055A000E66E6E0EAEEF2AF001C0E6FF43EF29F083
:0C55B00068DFE66A010EE66E040E1200D1
:0455BC00DEDAF70E2E
:1055C000DBA002D073EC0DF002010451051126E0BE
:1055D000F70EDBCFE6FFF80EDBCFE6FFF90EDBCFF1
:1055E000E6FFFA0EDBCFE6FFD950FB0FE96EFF0EA8
:1055F000DA20EA6EEECFE6FFEECFE6FFEECFE6FF73
:10560000EFCFE6FF05D005C2FAFF02010451F96EA3
:10561000FADF006E080EE15E005012D0DF6ACADACF
:10562000E8AE02D0E73402D0E750005C09E2DFCFF9
:1056300000F0016A00BE01681EDAEF6ADF2AEFD7C8
:10564000F70EDBA202D0B8EC0FF0E55283D295DA68
:1056500004EC13F0C6DAD89001320032E804FBE122
:105660000E0E0016000E0116A00E001059DAB9DA5F
:10567000D89001320032E804FBE10E0E0016000E55
:105680000116A10E001013DBDF6A94DAE8AE02D037
:10569000E73402D0E750005C06E2E66A7CDA00BE3E
:1056A000016827DBF2D70AEC13F0E55253D265DA32
:1056B00004EC13F02EDA8CDA02E3080E01D0000EAF
:1056C000A009F5DA006A0168026A036A22DAEE507C
:1056D0000016EE500116EE500216EE500316080E9C
:1056E000D8900332023201320032E806F9E100506C
:1056F00017DA0FDA6DDA02E3080E01D0000EA10905
:10570000D6DADF6ADFCF00F0F80EDB04E76E0018B0
:10571000E8AE02D0E73402D0E750005C06E2E66A69
:105720003ADA00BE0168E5DAEDD7010EE66E33DA4B
:1057300000BE0168A0D9E552E750EF6E0AEC13F005
:10574000E55208D2F9D9DBA45AD0DBA01ED0DFDAAB
:1057500069DA006A016A200E026E036A046A056A49
:105760000668076AD6D9EE500416EE500516EE50BC
:105770000616EE5007160C0E37DAFEE182DAE66AFC
:1057800089DA800EE66E86DAC2DA020EDB6AFCD9AE
:10579000E8AE02D0E73402D0E750005C01E39ED0CF
:1057A000B60EE66E0B0E37DA200EE66E3C0EE66E97
:1057B000880EE66E5BD980DA05E10101860502E01C
:1057C000000E01D0010EEFD9DBCF00F0016A00BE60
:1057D000016851D9030EDBCFEFFFDBCF02F0040EDF
:1057E000DBCF03F0000E0216FF0E031673DA00BEC5
:1057F000016841D902C0EFFF15DA63DAC8D787DA4A
:1058000011DA006A50D920C006F0046A056A076AF6
:105810000C0EEAD9FEE135DA060E006E44D91EC040
:1058200004F01FC005F0066A076A040E1F0B07E0AC
:10583000D8900436053606360736E806F9E129D948
:10584000800EE66E27DA68DA1B0EE5D965DA0B0EF4
:10585000E2D9DE6ADD6A50DA060E005C000E0158FD
:105860003CE24ADA026A036A008A3C0E0112880EA0
:105870000212F3D921DA05E10101860502E0000EEA
:1058800001D0010E90D9DBCF02F0036A02BE03689B
:1058900065D9F1D8030EDBCFEFFFDBCF04F0040EA8
:1058A000DBCF05F0000E0416FF0E051605C004F050
:1058B000056A020EDBCF02F0036A02BE03684ED90E
:1058C000010E0026000E0122D6D804C0EFFF1FDA19
:1058D000DF2A010EC0E3DB2ABED737DA050EE15C12
:1058E00002E2E16AE552E16E35D147D912D9EECF35
:1058F000E6FFEECFE6FFEECFE6FFEFCFE6FF0BECE5
:1059000010F019DADF6A56D9E8AE02D0E73402D0D7
:10591000E750005C0EE2090E7AD984EC11F0E552F2
:10592000E552E66EDFCF00F0016A00BE0168E1D902
:10593000EAD7E5520FD100D9DBA016D0160EE66EDD
:10594000060EE66E32EC10F0E552E552F70EDBA4DF
:1059500002D074D901D069D9DE6ADD6ACED804E2FA
:10596000F5D8FCE3DB2AFAD7020EDB6A0DD9E8AEE4
:1059700002D0E73402D0E750005C08E285D800BED0
:105980000168BFD900BE0168BFD9F0D7050EE15C40
:1059900002E2E16AE552E16EDDD0CED8DBA012D0A2
:1059A000B8EC0FF073EC0DF0F70EDBA402D046D983
:1059B00001D03BD9DE6ADD6AA0D804E2C7D8FCE397
:1059C000DB2AFAD7020EDB6ADFD8E8AE02D0E73472
:1059D00002D0E750005C08E257D800BE016891D9B8
:1059E00000BE016891D9F0D7050EE15C02E2E16AE0
:1059F000E552E16EAFD0A0D8DBA414D0A1D9DBCFA3
:105A000001F001C000F0016A010EE76EF4D8E75022
:105A1000E926000EEA2200C0EFFFEDD8030EDBCF2F
:105A2000EFFF1DD0DBA009D024D9DE6ADD6A65D87E
:105A300004E28CD8FCE3DB2AFAD7020EDB6AA4D896
:105A4000E8AE02D0E73402D0E750005C08E21CD890
:105A500000BE016856D900BE016856D9F0D7050EC0
:105A6000E15C02E2E16AE552E16E74D0E66A8CEC38
:105A700012F09BEF2EF0F90EDB500024E96EFA0EC7
:105A8000DB500120EA6E12005BD9DBCF03F06AEF36
:105A90002EF0045000120550011206500212075059
:105AA00003122DEF2EF0016A200E026E036AFB0E28
:105AB000DBCF04F0FC0EDBCF05F0FD0EDBCF06F0F4
:105AC000FE0EDBCF07F0D8900436053606360736D3
:105AD000030E236E246A256A266A04C01EF005C0E0
:105AE0001FF006C020F007C021F0FFEF3EF0030ECC
:105AF000DBCFEFFFBED861EF2EF0FED8FB0EDBCF81
:105B000002F0FC0EDBCF03F00250005C03500158A2
:105B10001200D950FB0FE96EFF0EDA20EA6E120078
:105B2000C6D8E0D8FD0EDBCF02F0FE0EDBCF03F0CF
:105B30000050BDD804EF13F0D9CFE6FFE1CFD9FF75
:105B4000050EE126020EDB6AF70E120092D8DF2A5C
:105B5000010E1200E552E7CFD9FF1200206E216A34
:105B6000DECF25F0DDCF26F023EC3FF002501E24DF
:105B7000006E03501F20016E1200D9CFE6FFE1CF67
:105B8000D9FFE652DF6A1200DBCF00F0F80EDB50DF
:105B9000E76E0018120044EC13F0E552E66EDFCF1A
:105BA00000F0016A1200E66E04EC12F0E55278D8BB
:105BB000020E1200DFCF00F0F80EDB50E76E001887
:105BC000120002C0EFFF020EDBCF00F0016A1200EC
:105BD000000EEE5C000EEE58010EEE58000EEE5870
:105BE000120080D8070E1200D89007320632053214
:105BF0000432E8061200F90EDBCFE9FFFA0EDBCF24
:105C0000EAFF1200E552E750EF6EDF2A1200E66E5F
:105C1000040EE66E1200E66EBA0EE66E27DF77D847
:105C200087EF2EF074D8A5EF2EF0040EE66E060E68
:105C3000E66E03EC11F0E552E5521200000EE66E3E
:105C4000E66AE66A060EE66EFCEC10F074D861DFD8
:105C5000EE52EE6AEE6AEE6A120000C0E6FF01C084
:105C6000E6FF02C0E6FF03C0E6FF8CEC12F09BEFFC
:105C70002EF0060EE66EE66E32EC10F0E552E552BE
:105C8000120007DF900EE66E010EE66E880EE66EDD
:105C900036EF2DF0030EE66EEB0EE66E36EF2DF0CE
:105CA000030EF3CFDBFF040EF4CFDBFF1200E66E32
:105CB0000FEC13F0E55212002AD802010E51800BAE
:105CC0001200020EDBCFE7FFE850E726020EE7CF17
:105CD000DBFF120003C002F0036A020EDB28006E35
:105CE000016A1200FB0EDBCF00F0FC0EDBCF01F0EF
:105CF0001200C1DE02EF2EF0DECF00F0DDCF01F0AA
:105D00001200B9DEE1EF2DF0B6DE77EF2DF0E66A96
:105D1000E66AE66A36EF2DF0960EE66E1B0E7BDF26
:105D2000B60EE66EDB0E77DFD60EE66EDB0E73DFA9
:105D3000B60EE66E1200E552E552E552E55212004B
:105D400074DFAEDF030E040E1200E66A010E5FDFA1
:065D50008DDE87EF2EF04E
:0A5D560065DA73EC0DF00201025152
:105D600003110CE0FE0EDBCFE6FF05D003C2FAFF05
:105D700002010251F96EFADFE55205D08A90B8ECC3
:105D80000FF0030E03D0B8EC0FF0010E46D2D9CFBE
:105D9000E6FF43D214DBE66AE66AE66A29DBE66AD6
:105DA000010EE66E040EE66E23DB8A0EE66EE66AF0
:105DB00061DB800EE66E0F0ECFDA900EE66E010EFE
:105DC000E66E880E81DB670EE66EE66A200E7CDBEF
:105DD000E66A030EE66EEB0EE66E0ADBDE6ADD6A4D
:105DE000C6DA020E005C000E015818E2860EE66E5E
:105DF0001B0EE66EBB0E68DB580EE66E050EACDAC7
:105E0000A90EE66E0A0EA8DA380E7CDA20DBC90E7F
:105E100036DBDF2A010EE4E3DB2AE2D7FA0EE66E78
:105E2000070EE66E27DB580EE66E050E95DA380E85
:105E300069DAA90EE66E0A0E8FDA09DB030E1FDBA4
:105E4000020EE15C02E2E16AE552E16EE6D1E9D9D7
:105E5000FBDA830EBDDA880EBBDA890EB9DA8A0E58
:105E6000B7DA060EBAD9A60EE66E8E0E54DAA60E74
:105E7000E66E9C0E50DAE66AE66A200EE66EE66A88
:105E80000BEC10F011DBA60EE66E840E44DAA60EC3
:105E9000E66E880E40DA550EC1DAAA0EBFDAA60EFB
:105EA000E66E820E38DAD9DA08DBA60EE66E940EBC
:105EB00032DAB3D13DDAE668E668FBDAC5DA870E96
:105EC000FFDA900E5BD234DA0F0E13DA870EF8DAAF
:105ED000F4DAA3D12DDA3F0E99DAEFDA9ED128DA7F
:105EE0000F0E94DA100E81D998D19BD9ADDA800EBD
:105EF0006FDA93D196D9E652A7DA020EE7D9A4DA7F
:105F0000040EE4D9A1DA050EE1D9010EDF6EDF50EF
:105F100015E09ADA040E8ADADFCF02F002C003F04D
:105F2000026ADF5000010210006E03C001F0E66E4D
:105F300003C0E6FF52DADF9EDF46E9D7E5526DD1B6
:105F4000F7D9010ED6D9800EBBDAF40E17D2F0D9EC
:105F50000F0E5CDA070E49D960D1B9DA20D261D9C7
:105F60001ED25FD9040EE126070EE66E020EE66E23
:105F7000D9CFE6FFDACFE6FF8FD9DEEC2AF023DABD
:105F8000B1D9010EDB50310B006E310E005C06E31F
:105F9000300EDF14016E300E015C17E2F7D9020EED
:105FA000DB6A030EDB6A020EDBCF00F0030EDBCFF1
:105FB00001F0D890015001E67DD90DE237D9020EEB
:105FC000DB2A030EF0E3DB2AEED718DAA8D950D982
:105FD000030EE66E18D9A3D9040EE15C02E2E16A71
:105FE000E552E16E1AD1EBD9D1D9DE6ADD6ABFD9AB
:105FF000D890015001E65ED906E218D9DF2A010ED9
:10600000F6E3DB2AF4D732DA05DA30DA77D96AD95F
:10601000BDD9090EFFD966D9F1D90B0EEDD8080EFE
:106020009FD9020EE15C02E2E16AE552E16EF5D031
:106030004EDA16DAF2D0C3D9E6D9DE6ADD6A97D92C
:10604000080E005C000E015806E2F0D8DF2A010EAF
:10605000F6E3DB2AF4D704DA020EE15C02E2E16A3D
:10606000E552E16EDAD033DA1F0E7ED9D6D0D9D818
:10607000080EE126040EDB6A050EDB6A14D9FF0E5A
:10608000005C030E015807E2D1D8040EDB2A050E8E
:10609000F5E3DB2AF3D702DAB6D9040EDB6A050E84
:1060A000DB6A01D907D907E2C1D8040EDB2A050E45
:1060B000F8E3DB2AF6D747D9F3CF00F0F4CF01F0AD
:1060C000000E0016300E0116020E00C0DBFF030E9C
:1060D00001C0DBFF98D9090E47D90B0E45D9B8ECA2
:1060E0000FF0EBD9ECD81BE042D954D9060EA4D955
:1060F000B2D8E668030EE66EA8D8060EDB68020E7C
:10610000030EDBCF01F001C000F0016A0F0E001298
:10611000000E0112A0D8C0D845EC14F054D9080ED6
:10612000E15C02E2E16AE552E16E77D0ADD975D06B
:1061300078D864D9090E6ED9EBD8080E5DD8090E4F
:10614000DDD80B0E67D98A9068D09ED9B8EC0FF0D5
:1061500073EC0DF0DDD80B0ED1D88A905ED061D8EB
:1061600065D8090ECBD859D01FD903E1E66A010ED4
:10617000E3D88FD90BE0A1D9040EE66E010E61D8E9
:1061800058D87AD8E66A61D80A0E2FD8040EE15C96
:1061900002E2E16AE552E16E40D006D903E1E66A27
:1061A000020ECAD876D90DE0040EE66E020E49D86A
:1061B00084D93FD8070E60D8010EE66E46D80A0E85
:1061C00014D8040EE15C02E2E16AE552E16E25D0EA
:1061D000040EE66EF5EC10F0CFD0E66EE66A3C0EEB
:1061E000E66EE66A0BEC10F0C7D0E66EE66A67EC86
:1061F0003CF0E552E5521200E66E060EDAD0E66A91
:106200008CEC12F0B9D0060EE66EFCEC10F0B4D0B7
:10621000000EE66EE66AE66A1200E552E7CFD9FFA5
:106220001200D9CFE6FFE1CFD9FF1200060EE66ECD
:10623000C0D09DD8AFD8020EFFD8030E00C0DBFF40
:1062400012007AD82BD9B8EF0FF0E66AE66A28EC8C
:1062500004F0E3EF31F0070E00C0DBFFE66E020E44
:10626000E66ED950060FE66E000EDA20E66E1200DA
:10627000E6683F0EE66E1200E66E020EE66ED9503C
:10628000020FE66E000EDA20E66EE6681200610E7E
:10629000E66EE70EE66E1200070EE66E200EE66E64
:1062A000E66AE66A1200040EDBCF00F0050EDBCFD3
